{
  "_format": "hh-sol-artifact-1",
  "contractName": "BattleArenaNFT",
  "sourceName": "contracts/BattleArenaNFT.sol",
  "abi": [
    {
      "inputs": [],
      "stateMutability": "nonpayable",
      "type": "constructor"
    },
    {
      "anonymous": false,
      "inputs": [
        {
          "indexed": false,
          "internalType": "address",
          "name": "sender",
          "type": "address"
        },
        {
          "indexed": false,
          "internalType": "uint256",
          "name": "characterTokenId",
          "type": "uint256"
        },
        {
          "indexed": false,
          "internalType": "uint256",
          "name": "accessoryTokenId",
          "type": "uint256"
        },
        {
          "indexed": false,
          "internalType": "uint256",
          "name": "accessoryIndex",
          "type": "uint256"
        }
      ],
      "name": "AccessoryEquipped",
      "type": "event"
    },
    {
      "anonymous": false,
      "inputs": [
        {
          "indexed": false,
          "internalType": "address",
          "name": "sender",
          "type": "address"
        },
        {
          "indexed": false,
          "internalType": "uint256",
          "name": "characterTokenId",
          "type": "uint256"
        },
        {
          "indexed": false,
          "internalType": "uint256",
          "name": "accessoryTokenId",
          "type": "uint256"
        },
        {
          "indexed": false,
          "internalType": "uint256",
          "name": "accessoryIndex",
          "type": "uint256"
        }
      ],
      "name": "AccessoryNFTMinted",
      "type": "event"
    },
    {
      "anonymous": false,
      "inputs": [
        {
          "indexed": false,
          "internalType": "address",
          "name": "sender",
          "type": "address"
        },
        {
          "indexed": false,
          "internalType": "uint256",
          "name": "characterTokenId",
          "type": "uint256"
        },
        {
          "indexed": false,
          "internalType": "uint256",
          "name": "accessoryTokenId",
          "type": "uint256"
        },
        {
          "indexed": false,
          "internalType": "uint256",
          "name": "accessoryIndex",
          "type": "uint256"
        }
      ],
      "name": "AccessoryRemoved",
      "type": "event"
    },
    {
      "anonymous": false,
      "inputs": [
        {
          "indexed": false,
          "internalType": "uint256",
          "name": "tokenId",
          "type": "uint256"
        },
        {
          "components": [
            {
              "internalType": "uint16",
              "name": "x",
              "type": "uint16"
            },
            {
              "internalType": "uint16",
              "name": "y",
              "type": "uint16"
            },
            {
              "internalType": "uint16",
              "name": "rotationAngle",
              "type": "uint16"
            },
            {
              "internalType": "uint16",
              "name": "scale",
              "type": "uint16"
            },
            {
              "internalType": "uint8",
              "name": "zIndex",
              "type": "uint8"
            },
            {
              "internalType": "bool",
              "name": "flipX",
              "type": "bool"
            },
            {
              "internalType": "bool",
              "name": "flipY",
              "type": "bool"
            }
          ],
          "indexed": false,
          "internalType": "struct BattleArenaTypes.AccessoryTransform",
          "name": "newTransform",
          "type": "tuple"
        }
      ],
      "name": "AccessoryTransformUpdated",
      "type": "event"
    },
    {
      "anonymous": false,
      "inputs": [
        {
          "indexed": true,
          "internalType": "address",
          "name": "owner",
          "type": "address"
        },
        {
          "indexed": true,
          "internalType": "address",
          "name": "approved",
          "type": "address"
        },
        {
          "indexed": true,
          "internalType": "uint256",
          "name": "tokenId",
          "type": "uint256"
        }
      ],
      "name": "Approval",
      "type": "event"
    },
    {
      "anonymous": false,
      "inputs": [
        {
          "indexed": true,
          "internalType": "address",
          "name": "owner",
          "type": "address"
        },
        {
          "indexed": true,
          "internalType": "address",
          "name": "operator",
          "type": "address"
        },
        {
          "indexed": false,
          "internalType": "bool",
          "name": "approved",
          "type": "bool"
        }
      ],
      "name": "ApprovalForAll",
      "type": "event"
    },
    {
      "anonymous": false,
      "inputs": [
        {
          "indexed": false,
          "internalType": "address",
          "name": "sender",
          "type": "address"
        },
        {
          "indexed": false,
          "internalType": "uint256",
          "name": "tokenId",
          "type": "uint256"
        },
        {
          "indexed": false,
          "internalType": "uint256",
          "name": "characterIndex",
          "type": "uint256"
        }
      ],
      "name": "CharacterNFTMinted",
      "type": "event"
    },
    {
      "anonymous": false,
      "inputs": [
        {
          "indexed": true,
          "internalType": "address",
          "name": "previousOwner",
          "type": "address"
        },
        {
          "indexed": true,
          "internalType": "address",
          "name": "newOwner",
          "type": "address"
        }
      ],
      "name": "OwnershipTransferred",
      "type": "event"
    },
    {
      "anonymous": false,
      "inputs": [
        {
          "indexed": true,
          "internalType": "address",
          "name": "from",
          "type": "address"
        },
        {
          "indexed": true,
          "internalType": "address",
          "name": "to",
          "type": "address"
        },
        {
          "indexed": true,
          "internalType": "uint256",
          "name": "tokenId",
          "type": "uint256"
        }
      ],
      "name": "Transfer",
      "type": "event"
    },
    {
      "inputs": [
        {
          "internalType": "address",
          "name": "to",
          "type": "address"
        },
        {
          "internalType": "uint256",
          "name": "tokenId",
          "type": "uint256"
        }
      ],
      "name": "approve",
      "outputs": [],
      "stateMutability": "nonpayable",
      "type": "function"
    },
    {
      "inputs": [
        {
          "internalType": "address",
          "name": "owner",
          "type": "address"
        }
      ],
      "name": "balanceOf",
      "outputs": [
        {
          "internalType": "uint256",
          "name": "",
          "type": "uint256"
        }
      ],
      "stateMutability": "view",
      "type": "function"
    },
    {
      "inputs": [
        {
          "internalType": "uint256",
          "name": "charTokenId",
          "type": "uint256"
        },
        {
          "internalType": "uint256",
          "name": "accessoryTokenId",
          "type": "uint256"
        }
      ],
      "name": "equipAccessory",
      "outputs": [],
      "stateMutability": "nonpayable",
      "type": "function"
    },
    {
      "inputs": [
        {
          "internalType": "uint256",
          "name": "charTokenId",
          "type": "uint256"
        }
      ],
      "name": "getAccessories",
      "outputs": [
        {
          "components": [
            {
              "internalType": "uint8",
              "name": "accessoryId",
              "type": "uint8"
            },
            {
              "internalType": "string",
              "name": "name",
              "type": "string"
            },
            {
              "internalType": "string",
              "name": "imageUrl",
              "type": "string"
            },
            {
              "components": [
                {
                  "internalType": "uint16",
                  "name": "x",
                  "type": "uint16"
                },
                {
                  "internalType": "uint16",
                  "name": "y",
                  "type": "uint16"
                },
                {
                  "internalType": "uint16",
                  "name": "rotationAngle",
                  "type": "uint16"
                },
                {
                  "internalType": "uint16",
                  "name": "scale",
                  "type": "uint16"
                },
                {
                  "internalType": "uint8",
                  "name": "zIndex",
                  "type": "uint8"
                },
                {
                  "internalType": "bool",
                  "name": "flipX",
                  "type": "bool"
                },
                {
                  "internalType": "bool",
                  "name": "flipY",
                  "type": "bool"
                }
              ],
              "internalType": "struct BattleArenaTypes.AccessoryTransform",
              "name": "transform",
              "type": "tuple"
            }
          ],
          "internalType": "struct BattleArenaTypes.Accessory[]",
          "name": "",
          "type": "tuple[]"
        }
      ],
      "stateMutability": "view",
      "type": "function"
    },
    {
      "inputs": [
        {
          "internalType": "uint256",
          "name": "tokenId",
          "type": "uint256"
        }
      ],
      "name": "getApproved",
      "outputs": [
        {
          "internalType": "address",
          "name": "",
          "type": "address"
        }
      ],
      "stateMutability": "view",
      "type": "function"
    },
    {
      "inputs": [
        {
          "internalType": "uint256",
          "name": "tokenId",
          "type": "uint256"
        }
      ],
      "name": "getBaseCharacterImage",
      "outputs": [
        {
          "internalType": "string",
          "name": "",
          "type": "string"
        }
      ],
      "stateMutability": "view",
      "type": "function"
    },
    {
      "inputs": [
        {
          "internalType": "uint256",
          "name": "tokenId",
          "type": "uint256"
        }
      ],
      "name": "getFullCharacterData",
      "outputs": [
        {
          "components": [
            {
              "internalType": "uint8",
              "name": "characterId",
              "type": "uint8"
            },
            {
              "internalType": "string",
              "name": "fullImageUrl",
              "type": "string"
            },
            {
              "internalType": "string",
              "name": "baseImageUrl",
              "type": "string"
            },
            {
              "components": [
                {
                  "internalType": "uint8",
                  "name": "accessoryId",
                  "type": "uint8"
                },
                {
                  "internalType": "string",
                  "name": "name",
                  "type": "string"
                },
                {
                  "internalType": "string",
                  "name": "imageUrl",
                  "type": "string"
                },
                {
                  "components": [
                    {
                      "internalType": "uint16",
                      "name": "x",
                      "type": "uint16"
                    },
                    {
                      "internalType": "uint16",
                      "name": "y",
                      "type": "uint16"
                    },
                    {
                      "internalType": "uint16",
                      "name": "rotationAngle",
                      "type": "uint16"
                    },
                    {
                      "internalType": "uint16",
                      "name": "scale",
                      "type": "uint16"
                    },
                    {
                      "internalType": "uint8",
                      "name": "zIndex",
                      "type": "uint8"
                    },
                    {
                      "internalType": "bool",
                      "name": "flipX",
                      "type": "bool"
                    },
                    {
                      "internalType": "bool",
                      "name": "flipY",
                      "type": "bool"
                    }
                  ],
                  "internalType": "struct BattleArenaTypes.AccessoryTransform",
                  "name": "transform",
                  "type": "tuple"
                }
              ],
              "internalType": "struct BattleArenaTypes.Accessory[]",
              "name": "accessories",
              "type": "tuple[]"
            }
          ],
          "internalType": "struct BattleArenaTypes.CharacterWithAccessories",
          "name": "",
          "type": "tuple"
        }
      ],
      "stateMutability": "view",
      "type": "function"
    },
    {
      "inputs": [
        {
          "internalType": "uint256",
          "name": "tokenId",
          "type": "uint256"
        }
      ],
      "name": "getFullImage",
      "outputs": [
        {
          "internalType": "string",
          "name": "",
          "type": "string"
        }
      ],
      "stateMutability": "view",
      "type": "function"
    },
    {
      "inputs": [
        {
          "internalType": "uint256",
          "name": "tokenId",
          "type": "uint256"
        }
      ],
      "name": "getTransform",
      "outputs": [
        {
          "components": [
            {
              "internalType": "uint16",
              "name": "x",
              "type": "uint16"
            },
            {
              "internalType": "uint16",
              "name": "y",
              "type": "uint16"
            },
            {
              "internalType": "uint16",
              "name": "rotationAngle",
              "type": "uint16"
            },
            {
              "internalType": "uint16",
              "name": "scale",
              "type": "uint16"
            },
            {
              "internalType": "uint8",
              "name": "zIndex",
              "type": "uint8"
            },
            {
              "internalType": "bool",
              "name": "flipX",
              "type": "bool"
            },
            {
              "internalType": "bool",
              "name": "flipY",
              "type": "bool"
            }
          ],
          "internalType": "struct BattleArenaTypes.AccessoryTransform",
          "name": "",
          "type": "tuple"
        }
      ],
      "stateMutability": "view",
      "type": "function"
    },
    {
      "inputs": [
        {
          "internalType": "uint256",
          "name": "tokenId",
          "type": "uint256"
        }
      ],
      "name": "hasAccessories",
      "outputs": [
        {
          "internalType": "bool",
          "name": "",
          "type": "bool"
        }
      ],
      "stateMutability": "view",
      "type": "function"
    },
    {
      "inputs": [
        {
          "internalType": "uint256",
          "name": "tokenId",
          "type": "uint256"
        }
      ],
      "name": "isAccessory",
      "outputs": [
        {
          "internalType": "bool",
          "name": "",
          "type": "bool"
        }
      ],
      "stateMutability": "view",
      "type": "function"
    },
    {
      "inputs": [
        {
          "internalType": "address",
          "name": "owner",
          "type": "address"
        },
        {
          "internalType": "address",
          "name": "operator",
          "type": "address"
        }
      ],
      "name": "isApprovedForAll",
      "outputs": [
        {
          "internalType": "bool",
          "name": "",
          "type": "bool"
        }
      ],
      "stateMutability": "view",
      "type": "function"
    },
    {
      "inputs": [
        {
          "internalType": "uint256",
          "name": "tokenId",
          "type": "uint256"
        }
      ],
      "name": "isCharacter",
      "outputs": [
        {
          "internalType": "bool",
          "name": "",
          "type": "bool"
        }
      ],
      "stateMutability": "view",
      "type": "function"
    },
    {
      "inputs": [
        {
          "internalType": "uint8",
          "name": "accessoryIndex",
          "type": "uint8"
        },
        {
          "internalType": "uint256",
          "name": "forTokenId",
          "type": "uint256"
        },
        {
          "internalType": "uint16",
          "name": "x",
          "type": "uint16"
        },
        {
          "internalType": "uint16",
          "name": "y",
          "type": "uint16"
        },
        {
          "internalType": "uint16",
          "name": "rotationAngle",
          "type": "uint16"
        },
        {
          "internalType": "uint16",
          "name": "scale",
          "type": "uint16"
        },
        {
          "internalType": "uint8",
          "name": "zIndex",
          "type": "uint8"
        },
        {
          "internalType": "bool",
          "name": "flipX",
          "type": "bool"
        },
        {
          "internalType": "bool",
          "name": "flipY",
          "type": "bool"
        }
      ],
      "name": "mintAccessory",
      "outputs": [],
      "stateMutability": "nonpayable",
      "type": "function"
    },
    {
      "inputs": [
        {
          "internalType": "uint8",
          "name": "accessoryIndex",
          "type": "uint8"
        },
        {
          "internalType": "uint256",
          "name": "forTokenId",
          "type": "uint256"
        }
      ],
      "name": "mintAccessoryWithDefaults",
      "outputs": [],
      "stateMutability": "nonpayable",
      "type": "function"
    },
    {
      "inputs": [
        {
          "internalType": "uint8",
          "name": "characterIndex",
          "type": "uint8"
        }
      ],
      "name": "mintCharacter",
      "outputs": [],
      "stateMutability": "nonpayable",
      "type": "function"
    },
    {
      "inputs": [],
      "name": "name",
      "outputs": [
        {
          "internalType": "string",
          "name": "",
          "type": "string"
        }
      ],
      "stateMutability": "view",
      "type": "function"
    },
    {
      "inputs": [],
      "name": "owner",
      "outputs": [
        {
          "internalType": "address",
          "name": "",
          "type": "address"
        }
      ],
      "stateMutability": "view",
      "type": "function"
    },
    {
      "inputs": [
        {
          "internalType": "uint256",
          "name": "tokenId",
          "type": "uint256"
        }
      ],
      "name": "ownerOf",
      "outputs": [
        {
          "internalType": "address",
          "name": "",
          "type": "address"
        }
      ],
      "stateMutability": "view",
      "type": "function"
    },
    {
      "inputs": [
        {
          "internalType": "uint256",
          "name": "charTokenId",
          "type": "uint256"
        },
        {
          "internalType": "uint256",
          "name": "accessoryTokenId",
          "type": "uint256"
        }
      ],
      "name": "removeAccessory",
      "outputs": [],
      "stateMutability": "nonpayable",
      "type": "function"
    },
    {
      "inputs": [],
      "name": "renounceOwnership",
      "outputs": [],
      "stateMutability": "nonpayable",
      "type": "function"
    },
    {
      "inputs": [
        {
          "internalType": "address",
          "name": "from",
          "type": "address"
        },
        {
          "internalType": "address",
          "name": "to",
          "type": "address"
        },
        {
          "internalType": "uint256",
          "name": "tokenId",
          "type": "uint256"
        }
      ],
      "name": "safeTransferFrom",
      "outputs": [],
      "stateMutability": "nonpayable",
      "type": "function"
    },
    {
      "inputs": [
        {
          "internalType": "address",
          "name": "from",
          "type": "address"
        },
        {
          "internalType": "address",
          "name": "to",
          "type": "address"
        },
        {
          "internalType": "uint256",
          "name": "tokenId",
          "type": "uint256"
        },
        {
          "internalType": "bytes",
          "name": "_data",
          "type": "bytes"
        }
      ],
      "name": "safeTransferFrom",
      "outputs": [],
      "stateMutability": "nonpayable",
      "type": "function"
    },
    {
      "inputs": [
        {
          "internalType": "address",
          "name": "operator",
          "type": "address"
        },
        {
          "internalType": "bool",
          "name": "approved",
          "type": "bool"
        }
      ],
      "name": "setApprovalForAll",
      "outputs": [],
      "stateMutability": "nonpayable",
      "type": "function"
    },
    {
      "inputs": [
        {
          "internalType": "uint256",
          "name": "tokenId",
          "type": "uint256"
        },
        {
          "internalType": "uint16",
          "name": "x",
          "type": "uint16"
        },
        {
          "internalType": "uint16",
          "name": "y",
          "type": "uint16"
        },
        {
          "internalType": "uint16",
          "name": "rotationAngle",
          "type": "uint16"
        },
        {
          "internalType": "uint16",
          "name": "scale",
          "type": "uint16"
        },
        {
          "internalType": "uint8",
          "name": "zIndex",
          "type": "uint8"
        },
        {
          "internalType": "bool",
          "name": "flipX",
          "type": "bool"
        },
        {
          "internalType": "bool",
          "name": "flipY",
          "type": "bool"
        }
      ],
      "name": "setTransform",
      "outputs": [],
      "stateMutability": "nonpayable",
      "type": "function"
    },
    {
      "inputs": [
        {
          "internalType": "bytes4",
          "name": "interfaceId",
          "type": "bytes4"
        }
      ],
      "name": "supportsInterface",
      "outputs": [
        {
          "internalType": "bool",
          "name": "",
          "type": "bool"
        }
      ],
      "stateMutability": "view",
      "type": "function"
    },
    {
      "inputs": [],
      "name": "symbol",
      "outputs": [
        {
          "internalType": "string",
          "name": "",
          "type": "string"
        }
      ],
      "stateMutability": "view",
      "type": "function"
    },
    {
      "inputs": [
        {
          "internalType": "uint256",
          "name": "tokenId",
          "type": "uint256"
        }
      ],
      "name": "tokenURI",
      "outputs": [
        {
          "internalType": "string",
          "name": "",
          "type": "string"
        }
      ],
      "stateMutability": "view",
      "type": "function"
    },
    {
      "inputs": [
        {
          "internalType": "address",
          "name": "from",
          "type": "address"
        },
        {
          "internalType": "address",
          "name": "to",
          "type": "address"
        },
        {
          "internalType": "uint256",
          "name": "tokenId",
          "type": "uint256"
        }
      ],
      "name": "transferFrom",
      "outputs": [],
      "stateMutability": "nonpayable",
      "type": "function"
    },
    {
      "inputs": [
        {
          "internalType": "address",
          "name": "newOwner",
          "type": "address"
        }
      ],
      "name": "transferOwnership",
      "outputs": [],
      "stateMutability": "nonpayable",
      "type": "function"
    },
    {
      "inputs": [
        {
          "internalType": "uint256",
          "name": "tokenId",
          "type": "uint256"
        }
      ],
      "name": "typeOf",
      "outputs": [
        {
          "internalType": "enum BattleArenaTypes.TokenType",
          "name": "",
          "type": "uint8"
        }
      ],
      "stateMutability": "view",
      "type": "function"
    }
  ],
  "bytecode": "0x60806040523480156200001157600080fd5b50604080518082018252601781527f426c6f636b636861696e20426174746c65204172656e6100000000000000000060208083019182528351808501909452600b84526a424154544c454152454e4160a81b9084015281519192916200007a9160009162000109565b5080516200009090600190602084019062000109565b505050620000ad620000a7620000b360201b60201c565b620000b7565b620001ec565b3390565b600680546001600160a01b038381166001600160a01b0319831681179093556040519116919082907f8be0079c531659141344cd1fd0a4f28419497f9722a3daafe3b4186f6b6457e090600090a35050565b8280546200011790620001af565b90600052602060002090601f0160209004810192826200013b576000855562000186565b82601f106200015657805160ff191683800117855562000186565b8280016001018555821562000186579182015b828111156200018657825182559160200191906001019062000169565b506200019492915062000198565b5090565b5b8082111562000194576000815560010162000199565b600181811c90821680620001c457607f821691505b60208210811415620001e657634e487b7160e01b600052602260045260246000fd5b50919050565b6146e280620001fc6000396000f3fe608060405234801561001057600080fd5b50600436106101e55760003560e01c80638c89aedb1161010f578063c588ff8b116100a2578063d77bd46c11610071578063d77bd46c14610456578063de4a3a9a14610469578063e985e9c51461047c578063f2fde38b146104b857600080fd5b8063c588ff8b146103ed578063c87b56dd1461041d578063cd77282d14610430578063d6af69611461044357600080fd5b8063a6424bb3116100de578063a6424bb314610394578063b7569fd5146103a7578063b88d4fde146103ba578063c0f1dac9146103cd57600080fd5b80638c89aedb146103555780638da5cb5b1461036857806395d89b4114610379578063a22cb4651461038157600080fd5b80632d93ee49116101875780635cf9ed2b116101565780635cf9ed2b146103065780636352211e1461031957806370a082311461032c578063715018a61461034d57600080fd5b80632d93ee49146102ad57806342842e0e146102c057806350084fe4146102d3578063533368a1146102f357600080fd5b8063081812fc116101c3578063081812fc1461023c578063095ea7b31461026757806321347ab11461027a57806323b872dd1461029a57600080fd5b806301ffc9a7146101ea5780630447a45e1461021257806306fdde0314610227575b600080fd5b6101fd6101f8366004613a64565b6104cb565b60405190151581526020015b60405180910390f35b610225610220366004613b43565b610568565b005b61022f6109b0565b6040516102099190613fd9565b61024f61024a366004613a9c565b610a42565b6040516001600160a01b039091168152602001610209565b610225610275366004613a3b565b610ad7565b61028d610288366004613a9c565b610c27565b6040516102099190613fec565b6102256102a8366004613902565b610d8d565b6102256102bb366004613b64565b610e14565b6102256102ce366004613902565b610fa2565b6102e66102e1366004613a9c565b610fbd565b604051610209919061404c565b610225610301366004613ab4565b61110b565b61022f610314366004613a9c565b61138a565b61024f610327366004613a9c565b611698565b61033f61033a3660046138af565b611723565b604051908152602001610209565b6102256117bd565b610225610363366004613b43565b611823565b6006546001600160a01b031661024f565b61022f611cd5565b61022561038f366004613a12565b611ce4565b6102256103a2366004613b99565b611cef565b6101fd6103b5366004613a9c565b612172565b6102256103c836600461393d565b6121ae565b6103e06103db366004613a9c565b61223c565b6040516102099190613eb6565b6104106103fb366004613a9c565b60009081526008602052604090205460ff1690565b6040516102099190613fb1565b61022f61042b366004613a9c565b612551565b6101fd61043e366004613a9c565b612988565b6101fd610451366004613a9c565b6129e2565b61022f610464366004613a9c565b6129eb565b610225610477366004613b7e565b612c1f565b6101fd61048a3660046138d0565b6001600160a01b03918216600090815260056020908152604080832093909416825291909152205460ff1690565b6102256104c63660046138af565b612c35565b60006001600160e01b031982167f80ac58cd00000000000000000000000000000000000000000000000000000000148061052e57506001600160e01b031982167f5b5e139f00000000000000000000000000000000000000000000000000000000145b8061056257507f01ffc9a7000000000000000000000000000000000000000000000000000000006001600160e01b03198316145b92915050565b6006546001600160a01b031633146105c75760405162461bcd60e51b815260206004820181905260248201527f4f776e61626c653a2063616c6c6572206973206e6f7420746865206f776e657260448201526064015b60405180910390fd5b60008281526008602052604081205460ff1660018111156105f857634e487b7160e01b600052602160045260246000fd5b1461066b5760405162461bcd60e51b815260206004820152602860248201527f63616e206f6e6c79206571756970206163636573736f72696573206f6e20636860448201527f617261637465727300000000000000000000000000000000000000000000000060648201526084016105be565b600160008281526008602052604090205460ff16600181111561069e57634e487b7160e01b600052602160045260246000fd5b146106eb5760405162461bcd60e51b815260206004820152601a60248201527f63616e206f6e6c79206571756970206163636573736f7269657300000000000060448201526064016105be565b6000828152600960205260409020546001600160a01b031633146107775760405162461bcd60e51b815260206004820152603160248201527f63616e206f6e6c79206571756970206163636573736f72696573206f6e20796f60448201527f7572206f776e206368617261637465727300000000000000000000000000000060648201526084016105be565b6000818152600960205260409020546001600160a01b031633146108035760405162461bcd60e51b815260206004820152602260248201527f63616e206f6e6c79206571756970206163636573736f7269657320796f75206f60448201527f776e00000000000000000000000000000000000000000000000000000000000060648201526084016105be565b6000828152600b6020526040902054600360ff9091161061088c5760405162461bcd60e51b815260206004820152602260248201527f63616e206f6e6c7920657175697020757020746f2033206163636573736f726960448201527f657300000000000000000000000000000000000000000000000000000000000060648201526084016105be565b6000818152600d602052604090205480156108ab576108ab8183611823565b6000838152600c60209081526040822080546001810182558184529183209091018490559084905280546108e290829081906137c0565b506000848152600b60205260408120805460ff169161090083614303565b91906101000a81548160ff021916908360ff160217905550507f65cdd263f5edae86dd900d33c1419eca29339195ee0ba96645de6d9b06f39e5c3385856007878154811061095e57634e487b7160e01b600052603260045260246000fd5b60009182526020918290208282040154604080516001600160a01b039790971687529286019490945290840191909152601f166101000a900460ff16606082015260800160405180910390a150505050565b6060600080546109bf906142ad565b80601f01602080910402602001604051908101604052809291908181526020018280546109eb906142ad565b8015610a385780601f10610a0d57610100808354040283529160200191610a38565b820191906000526020600020905b815481529060010190602001808311610a1b57829003601f168201915b5050505050905090565b6000818152600260205260408120546001600160a01b0316610abb5760405162461bcd60e51b815260206004820152602c60248201527f4552433732313a20617070726f76656420717565727920666f72206e6f6e657860448201526b34b9ba32b73a103a37b5b2b760a11b60648201526084016105be565b506000908152600460205260409020546001600160a01b031690565b6000610ae282611698565b9050806001600160a01b0316836001600160a01b03161415610b6c5760405162461bcd60e51b815260206004820152602160248201527f4552433732313a20617070726f76616c20746f2063757272656e74206f776e6560448201527f720000000000000000000000000000000000000000000000000000000000000060648201526084016105be565b336001600160a01b0382161480610ba657506001600160a01b038116600090815260056020908152604080832033845290915290205460ff165b610c185760405162461bcd60e51b815260206004820152603860248201527f4552433732313a20617070726f76652063616c6c6572206973206e6f74206f7760448201527f6e6572206e6f7220617070726f76656420666f7220616c6c000000000000000060648201526084016105be565b610c228383612d17565b505050565b6040805160e081018252600080825260208201819052918101829052606081018290526080810182905260a0810182905260c0810191909152600160008381526008602052604090205460ff166001811115610c9357634e487b7160e01b600052602160045260246000fd5b14610cef5760405162461bcd60e51b815260206004820152602660248201527f63616e206f6e6c7920676574207472616e73666f726d20666f72206163636573604482015265736f7269657360d01b60648201526084016105be565b506000908152600e6020908152604091829020825160e081018452905461ffff8082168352620100008204811693830193909352640100000000810483169382019390935266010000000000008304909116606082015260ff68010000000000000000830481166080830152690100000000000000000083048116151560a08301526a0100000000000000000000909204909116151560c082015290565b610d973382612d85565b610e095760405162461bcd60e51b815260206004820152603160248201527f4552433732313a207472616e736665722063616c6c6572206973206e6f74206f60448201527f776e6572206e6f7220617070726f76656400000000000000000000000000000060648201526084016105be565b610c22838383612e7c565b60008160ff16118015610e2b575060038160ff1611155b610e9d5760405162461bcd60e51b815260206004820152602660248201527f636861726163746572496e646578206d757374206265206265747765656e203160448201527f20616e642033000000000000000000000000000000000000000000000000000060648201526084016105be565b6000610ea8600f5490565b9050610eb43382613049565b6000818152600860209081526040808320805460ff1916905560078054600181019091558281047fa66cc928b5edb82af9bd49922954155ab7b0942694bea4ce44661d9a8736c68801805460ff888116601f9094166101000a938402930219169190911790556009825280832080546001600160a01b031916339081179091558352600a9091528120805491610f49836142e8565b9091555050604080513381526020810183905260ff84168183015290517f4bc303fd457a97b4691b9af582ce71868a3d258638c8d4f8c60988a0f0bfb8cd9181900360600190a1610f9e600f80546001019055565b5050565b610c22838383604051806020016040528060008152506121ae565b610feb6040518060800160405280600060ff1681526020016060815260200160608152602001606081525090565b60008281526008602052604081205460ff16600181111561101c57634e487b7160e01b600052602160045260246000fd5b1461108e5760405162461bcd60e51b8152602060048201526024808201527f6d6574686f642063616c6c6564206f6e206e6f6e2d636861726163746572207460448201527f6f6b656e0000000000000000000000000000000000000000000000000000000060648201526084016105be565b60006040518060800160405280600785815481106110bc57634e487b7160e01b600052603260045260246000fd5b6000918252602091829020828204015460ff601f9092166101000a9004168252016110e68561138a565b81526020016110f4856129eb565b81526020016111028561223c565b90529392505050565b6006546001600160a01b031633146111655760405162461bcd60e51b815260206004820181905260248201527f4f776e61626c653a2063616c6c6572206973206e6f7420746865206f776e657260448201526064016105be565b600160008981526008602052604090205460ff16600181111561119857634e487b7160e01b600052602160045260246000fd5b146111f45760405162461bcd60e51b815260206004820152602660248201527f63616e206f6e6c7920736574207472616e73666f726d20666f72206163636573604482015265736f7269657360d01b60648201526084016105be565b60006040518060e001604052808961ffff1681526020018861ffff1681526020018761ffff1681526020018661ffff1681526020018560ff1681526020018415158152602001831515815250905080600e60008b815260200190815260200160002060008201518160000160006101000a81548161ffff021916908361ffff16021790555060208201518160000160026101000a81548161ffff021916908361ffff16021790555060408201518160000160046101000a81548161ffff021916908361ffff16021790555060608201518160000160066101000a81548161ffff021916908361ffff16021790555060808201518160000160086101000a81548160ff021916908360ff16021790555060a08201518160000160096101000a81548160ff02191690831515021790555060c082015181600001600a6101000a81548160ff0219169083151502179055509050507f56fd0f41caa057a6971458c0394c76289c708015a5d0467e168ab750769f57c6898260405161137792919061418f565b60405180910390a1505050505050505050565b60606000808381526008602052604090205460ff1660018111156113be57634e487b7160e01b600052602160045260246000fd5b141561150a57600782815481106113e557634e487b7160e01b600052603260045260246000fd5b90600052602060002090602091828204019190069054906101000a900460ff1660ff166001141561142f576040518060800160405280605b8152602001614652605b913992915050565b6007828154811061145057634e487b7160e01b600052603260045260246000fd5b90600052602060002090602091828204019190069054906101000a900460ff1660ff166002141561149a576040518060800160405280605b8152602001614366605b913992915050565b600782815481106114bb57634e487b7160e01b600052603260045260246000fd5b90600052602060002090602091828204019190069054906101000a900460ff1660ff1660031415611505576040518060800160405280605b815260200161459f605b913992915050565b611684565b600160008381526008602052604090205460ff16600181111561153d57634e487b7160e01b600052602160045260246000fd5b1415611684576007828154811061156457634e487b7160e01b600052603260045260246000fd5b90600052602060002090602091828204019190069054906101000a900460ff1660ff16600414156115ae576040518060800160405280605181526020016143c16051913992915050565b600782815481106115cf57634e487b7160e01b600052603260045260246000fd5b90600052602060002090602091828204019190069054906101000a900460ff1660ff1660051415611619576040518060800160405280605281526020016144126052913992915050565b6007828154811061163a57634e487b7160e01b600052603260045260246000fd5b90600052602060002090602091828204019190069054906101000a900460ff1660ff1660061415611684576040518060800160405280604b8152602001614554604b913992915050565b505060408051602081019091526000815290565b6000818152600260205260408120546001600160a01b0316806105625760405162461bcd60e51b815260206004820152602960248201527f4552433732313a206f776e657220717565727920666f72206e6f6e657869737460448201527f656e7420746f6b656e000000000000000000000000000000000000000000000060648201526084016105be565b60006001600160a01b0382166117a15760405162461bcd60e51b815260206004820152602a60248201527f4552433732313a2062616c616e636520717565727920666f7220746865207a6560448201527f726f20616464726573730000000000000000000000000000000000000000000060648201526084016105be565b506001600160a01b031660009081526003602052604090205490565b6006546001600160a01b031633146118175760405162461bcd60e51b815260206004820181905260248201527f4f776e61626c653a2063616c6c6572206973206e6f7420746865206f776e657260448201526064016105be565b6118216000613063565b565b6006546001600160a01b0316331461187d5760405162461bcd60e51b815260206004820181905260248201527f4f776e61626c653a2063616c6c6572206973206e6f7420746865206f776e657260448201526064016105be565b600160008281526008602052604090205460ff1660018111156118b057634e487b7160e01b600052602160045260246000fd5b146118fd5760405162461bcd60e51b815260206004820152601b60248201527f63616e206f6e6c792072656d6f7665206163636573736f72696573000000000060448201526064016105be565b60008281526008602052604081205460ff16600181111561192e57634e487b7160e01b600052602160045260246000fd5b146119a15760405162461bcd60e51b815260206004820152602b60248201527f63616e206f6e6c792072656d6f7665206163636573736f726965732066726f6d60448201527f206368617261637465727300000000000000000000000000000000000000000060648201526084016105be565b6000818152600d60205260409020548214611a245760405162461bcd60e51b815260206004820152602b60248201527f6163636573736f7279206973206e6f7420617474616368656420746f2074686960448201527f732063686172616374657200000000000000000000000000000000000000000060648201526084016105be565b6000828152600c6020908152604080832080548251818502810185019093528083529192909190830182828015611a7a57602002820191906000526020600020905b815481526020019060010190808311611a66575b50505050509050805160011415611ab9576040805160008082526020808301808552878352600c9091529290209051611ab39290613810565b50611bf9565b600060018251611ac9919061424d565b67ffffffffffffffff811115611aef57634e487b7160e01b600052604160045260246000fd5b604051908082528060200260200182016040528015611b18578160200160208202803683370190505b5090506000805b83518160ff161015611bd55784848260ff1681518110611b4f57634e487b7160e01b600052603260045260246000fd5b602002602001015114611bc357838160ff1681518110611b7f57634e487b7160e01b600052603260045260246000fd5b6020026020010151838360ff1681518110611baa57634e487b7160e01b600052603260045260246000fd5b602090810291909101015281611bbf81614303565b9250505b80611bcd81614303565b915050611b1f565b506000858152600c602090815260409091208351611bf592850190613810565b5050505b6000828152600d60209081526040808320839055858352600b9091528120805460ff1691611c2683614290565b91906101000a81548160ff021916908360ff160217905550507fa439353edadf1b6839792052b69866cd12e009d2eb5550dd0c7a2d6fb1e274af33848460078681548110611c8457634e487b7160e01b600052603260045260246000fd5b60009182526020918290208282040154604080516001600160a01b039790971687529286019490945290840191909152601f166101000a900460ff16606082015260800160405180910390a1505050565b6060600180546109bf906142ad565b610f9e3383836130b5565b60048960ff1610158015611d07575060068960ff1611155b611d625760405162461bcd60e51b815260206004820152602660248201527f6163636573736f7279496e646578206d757374206265206265747765656e20346044820152651030b732101b60d11b60648201526084016105be565b60008881526008602052604081205460ff166001811115611d9357634e487b7160e01b600052602160045260246000fd5b14611e065760405162461bcd60e51b815260206004820152602860248201527f63616e206f6e6c792061646420616e206163636573736f727920746f2061206360448201527f686172616374657200000000000000000000000000000000000000000000000060648201526084016105be565b6000611e11600f5490565b9050611e1d3382613049565b600081815260086020526040902080546001919060ff19168280021790555060078a90806001815401808255809150506001900390600052602060002090602091828204019190069091909190916101000a81548160ff021916908360ff160217905550336009600083815260200190815260200160002060006101000a8154816001600160a01b0302191690836001600160a01b031602179055506000600c60008b815260200190815260200160002090508082908060018154018082558091505060019003906000526020600020016000909190919091505589600d600084815260200190815260200160002081905550600b60008b8152602001908152602001600020600081819054906101000a900460ff1680929190611f4090614303565b91906101000a81548160ff021916908360ff1602179055505060006040518060e001604052808b61ffff1681526020018a61ffff1681526020018961ffff1681526020018861ffff1681526020018760ff1681526020018615158152602001851515815250905080600e600085815260200190815260200160002060008201518160000160006101000a81548161ffff021916908361ffff16021790555060208201518160000160026101000a81548161ffff021916908361ffff16021790555060408201518160000160046101000a81548161ffff021916908361ffff16021790555060608201518160000160066101000a81548161ffff021916908361ffff16021790555060808201518160000160086101000a81548160ff021916908360ff16021790555060a08201518160000160096101000a81548160ff02191690831515021790555060c082015181600001600a6101000a81548160ff0219169083151502179055509050507fe3206f316c2a68101b7bdff382349241e2d779fd8b2fb68499c77ec8b576473f338c858f60405161210494939291906001600160a01b039490941684526020840192909252604083015260ff16606082015260800190565b60405180910390a160408051338152602081018d905290810184905260ff8d1660608201527f65cdd263f5edae86dd900d33c1419eca29339195ee0ba96645de6d9b06f39e5c9060800160405180910390a1612164600f80546001019055565b505050505050505050505050565b6000805b60008381526008602052604090205460ff1660018111156121a757634e487b7160e01b600052602160045260246000fd5b1492915050565b6121b83383612d85565b61222a5760405162461bcd60e51b815260206004820152603160248201527f4552433732313a207472616e736665722063616c6c6572206973206e6f74206f60448201527f776e6572206e6f7220617070726f76656400000000000000000000000000000060648201526084016105be565b61223684848484613184565b50505050565b60606000808381526008602052604090205460ff16600181111561227057634e487b7160e01b600052602160045260246000fd5b146122e35760405162461bcd60e51b815260206004820152602760248201527f63616e206f6e6c7920676574206163636573736f7269657320666f722063686160448201527f726163746572730000000000000000000000000000000000000000000000000060648201526084016105be565b6000828152600c602090815260408083208054825181850281018501909352808352919290919083018282801561233957602002820191906000526020600020905b815481526020019060010190808311612325575b505050505090506000815167ffffffffffffffff81111561236a57634e487b7160e01b600052604160045260246000fd5b6040519080825280602002602001820160405280156123f057816020015b6040805160808082018352600080835260606020808501829052848601829052855160e08101875283815290810183905294850182905284810182905291840181905260a0840181905260c08401528101919091528152602001906001900390816123885790505b50905060005b82518160ff1610156125495760006007848360ff168151811061242957634e487b7160e01b600052603260045260246000fd5b60200260200101518154811061244f57634e487b7160e01b600052603260045260246000fd5b90600052602060002090602091828204019190069054906101000a900460ff169050600060405180608001604052808360ff16815260200161249084613202565b81526020016124c8878660ff16815181106124bb57634e487b7160e01b600052603260045260246000fd5b602002602001015161138a565b8152602001612500878660ff16815181106124f357634e487b7160e01b600052603260045260246000fd5b6020026020010151610c27565b815250905080848460ff168151811061252957634e487b7160e01b600052603260045260246000fd5b60200260200101819052505050808061254190614303565b9150506123f6565b509392505050565b60608080806000808681526008602052604090205460ff16600181111561258857634e487b7160e01b600052602160045260246000fd5b141561270b576040518060400160405280600981526020017f43686172616374657200000000000000000000000000000000000000000000008152509150600785815481106125e757634e487b7160e01b600052603260045260246000fd5b90600052602060002090602091828204019190069054906101000a900460ff1660ff1660011415612632576040518060800160405280605b8152602001614652605b91399250612926565b6007858154811061265357634e487b7160e01b600052603260045260246000fd5b90600052602060002090602091828204019190069054906101000a900460ff1660ff166002141561269e576040518060800160405280605b8152602001614366605b91399250612926565b600785815481106126bf57634e487b7160e01b600052603260045260246000fd5b90600052602060002090602091828204019190069054906101000a900460ff1660ff1660031415612706576040518060800160405280605b815260200161459f605b913992505b612926565b600160008681526008602052604090205460ff16600181111561273e57634e487b7160e01b600052602160045260246000fd5b1415612926576040518060400160405280600981526020017f6163636573736f7279000000000000000000000000000000000000000000000081525091506127c5600786815481106127a057634e487b7160e01b600052603260045260246000fd5b90600052602060002090602091828204019190069054906101000a900460ff16613202565b6040516020016127d59190613c65565b60405160208183030381529060405290506007858154811061280757634e487b7160e01b600052603260045260246000fd5b90600052602060002090602091828204019190069054906101000a900460ff1660ff1660041415612852576040518060800160405280605181526020016143c1605191399250612926565b6007858154811061287357634e487b7160e01b600052603260045260246000fd5b90600052602060002090602091828204019190069054906101000a900460ff1660ff16600514156128be57604051806080016040528060528152602001614412605291399250612926565b600785815481106128df57634e487b7160e01b600052603260045260246000fd5b90600052602060002090602091828204019190069054906101000a900460ff1660ff1660061415612926576040518060800160405280604b8152602001614554604b913992505b60006129588284848688604051602001612944959493929190613ceb565b604051602081830303815290604052613346565b905060008160405160200161296d9190613ca6565b60408051601f19818403018152919052979650505050505050565b60008060008381526008602052604090205460ff1660018111156129bc57634e487b7160e01b600052602160045260246000fd5b14156129da57506000908152600b602052604090205460ff16151590565b506000919050565b60006001612176565b60606000808381526008602052604090205460ff166001811115612a1f57634e487b7160e01b600052602160045260246000fd5b14612ade5760405162461bcd60e51b815260206004820152606560248201527f6163636573736f7269657320646f6e277420686176652061206261736520696d60448201527f6167652c207573652067657446756c6c496d616765206f7220696e737065637460648201527f206d6574616461746120696e20746f6b656e555249206d6574686f647320696e60848201527f737465616400000000000000000000000000000000000000000000000000000060a482015260c4016105be565b60078281548110612aff57634e487b7160e01b600052603260045260246000fd5b90600052602060002090602091828204019190069054906101000a900460ff1660ff1660011415612b49576040518060800160405280605881526020016144646058913992915050565b60078281548110612b6a57634e487b7160e01b600052603260045260246000fd5b90600052602060002090602091828204019190069054906101000a900460ff1660ff1660021415612bb4576040518060800160405280605881526020016145fa6058913992915050565b60078281548110612bd557634e487b7160e01b600052603260045260246000fd5b90600052602060002090602091828204019190069054906101000a900460ff1660ff1660031415611684576040518060800160405280605881526020016144fc6058913992915050565b610f9e8282600080600060016000806000611cef565b6006546001600160a01b03163314612c8f5760405162461bcd60e51b815260206004820181905260248201527f4f776e61626c653a2063616c6c6572206973206e6f7420746865206f776e657260448201526064016105be565b6001600160a01b038116612d0b5760405162461bcd60e51b815260206004820152602660248201527f4f776e61626c653a206e6577206f776e657220697320746865207a65726f206160448201527f646472657373000000000000000000000000000000000000000000000000000060648201526084016105be565b612d1481613063565b50565b600081815260046020526040902080546001600160a01b0319166001600160a01b0384169081179091558190612d4c82611698565b6001600160a01b03167f8c5be1e5ebec7d5bd14f71427d1e84f3dd0314c0f7b2291e5b200ac8c7c3b92560405160405180910390a45050565b6000818152600260205260408120546001600160a01b0316612dfe5760405162461bcd60e51b815260206004820152602c60248201527f4552433732313a206f70657261746f7220717565727920666f72206e6f6e657860448201526b34b9ba32b73a103a37b5b2b760a11b60648201526084016105be565b6000612e0983611698565b9050806001600160a01b0316846001600160a01b03161480612e445750836001600160a01b0316612e3984610a42565b6001600160a01b0316145b80612e7457506001600160a01b0380821660009081526005602090815260408083209388168352929052205460ff165b949350505050565b826001600160a01b0316612e8f82611698565b6001600160a01b031614612f0b5760405162461bcd60e51b815260206004820152602560248201527f4552433732313a207472616e736665722066726f6d20696e636f72726563742060448201527f6f776e657200000000000000000000000000000000000000000000000000000060648201526084016105be565b6001600160a01b038216612f865760405162461bcd60e51b8152602060048201526024808201527f4552433732313a207472616e7366657220746f20746865207a65726f2061646460448201527f726573730000000000000000000000000000000000000000000000000000000060648201526084016105be565b612f91600082612d17565b6001600160a01b0383166000908152600360205260408120805460019290612fba90849061424d565b90915550506001600160a01b0382166000908152600360205260408120805460019290612fe89084906141f6565b909155505060008181526002602052604080822080546001600160a01b0319166001600160a01b0386811691821790925591518493918716917fddf252ad1be2c89b69c2b068fc378daa952ba7f163c4a11628f55a4df523b3ef91a4505050565b610f9e8282604051806020016040528060008152506134a8565b600680546001600160a01b038381166001600160a01b0319831681179093556040519116919082907f8be0079c531659141344cd1fd0a4f28419497f9722a3daafe3b4186f6b6457e090600090a35050565b816001600160a01b0316836001600160a01b031614156131175760405162461bcd60e51b815260206004820152601960248201527f4552433732313a20617070726f766520746f2063616c6c65720000000000000060448201526064016105be565b6001600160a01b03838116600081815260056020908152604080832094871680845294825291829020805460ff191686151590811790915591519182527f17307eab39ab6107e8899845ad3d59bd9653f200f220920489ca2b5937696c31910160405180910390a3505050565b61318f848484612e7c565b61319b84848484613526565b6122365760405162461bcd60e51b815260206004820152603260248201527f4552433732313a207472616e7366657220746f206e6f6e20455243373231526560448201527131b2b4bb32b91034b6b83632b6b2b73a32b960711b60648201526084016105be565b606060048260ff161015801561321c575060068260ff1611155b6132775760405162461bcd60e51b815260206004820152602660248201527f6163636573736f7279496e646578206d757374206265206265747765656e20346044820152651030b732101b60d11b60648201526084016105be565b8160ff16600414156132bc57505060408051808201909152600981527f6369676172657474650000000000000000000000000000000000000000000000602082015290565b8160ff166005141561330157505060408051808201909152600a81527f657965206c656e73657200000000000000000000000000000000000000000000602082015290565b8160ff166006141561168457505060408051808201909152600381527f6861740000000000000000000000000000000000000000000000000000000000602082015290565b606081516000141561336657505060408051602081019091526000815290565b60006040518060600160405280604081526020016144bc604091399050600060038451600261339591906141f6565b61339f919061420e565b6133aa90600461422e565b67ffffffffffffffff8111156133d057634e487b7160e01b600052604160045260246000fd5b6040519080825280601f01601f1916602001820160405280156133fa576020820181803683370190505b509050600182016020820185865187015b80821015613466576003820191508151603f8160121c168501518453600184019350603f81600c1c168501518453600184019350603f8160061c168501518453600184019350603f811685015184535060018301925061340b565b505060038651066001811461348257600281146134955761349d565b603d6001830353603d600283035361349d565b603d60018303535b509195945050505050565b6134b2838361367e565b6134bf6000848484613526565b610c225760405162461bcd60e51b815260206004820152603260248201527f4552433732313a207472616e7366657220746f206e6f6e20455243373231526560448201527131b2b4bb32b91034b6b83632b6b2b73a32b960711b60648201526084016105be565b60006001600160a01b0384163b1561367357604051630a85bd0160e11b81526001600160a01b0385169063150b7a029061356a903390899088908890600401613e7a565b602060405180830381600087803b15801561358457600080fd5b505af19250505080156135b4575060408051601f3d908101601f191682019092526135b191810190613a80565b60015b613659573d8080156135e2576040519150601f19603f3d011682016040523d82523d6000602084013e6135e7565b606091505b5080516136515760405162461bcd60e51b815260206004820152603260248201527f4552433732313a207472616e7366657220746f206e6f6e20455243373231526560448201527131b2b4bb32b91034b6b83632b6b2b73a32b960711b60648201526084016105be565b805181602001fd5b6001600160e01b031916630a85bd0160e11b149050612e74565b506001949350505050565b6001600160a01b0382166136d45760405162461bcd60e51b815260206004820181905260248201527f4552433732313a206d696e7420746f20746865207a65726f206164647265737360448201526064016105be565b6000818152600260205260409020546001600160a01b0316156137395760405162461bcd60e51b815260206004820152601c60248201527f4552433732313a20746f6b656e20616c7265616479206d696e7465640000000060448201526064016105be565b6001600160a01b03821660009081526003602052604081208054600192906137629084906141f6565b909155505060008181526002602052604080822080546001600160a01b0319166001600160a01b03861690811790915590518392907fddf252ad1be2c89b69c2b068fc378daa952ba7f163c4a11628f55a4df523b3ef908290a45050565b8280548282559060005260206000209081019282156138005760005260206000209182015b828111156138005782548255916001019190600101906137e5565b5061380c92915061384b565b5090565b828054828255906000526020600020908101928215613800579160200282015b82811115613800578251825591602001919060010190613830565b5b8082111561380c576000815560010161384c565b80356001600160a01b038116811461387757600080fd5b919050565b8035801515811461387757600080fd5b803561ffff8116811461387757600080fd5b803560ff8116811461387757600080fd5b6000602082840312156138c0578081fd5b6138c982613860565b9392505050565b600080604083850312156138e2578081fd5b6138eb83613860565b91506138f960208401613860565b90509250929050565b600080600060608486031215613916578081fd5b61391f84613860565b925061392d60208501613860565b9150604084013590509250925092565b60008060008060808587031215613952578081fd5b61395b85613860565b935061396960208601613860565b925060408501359150606085013567ffffffffffffffff8082111561398c578283fd5b818701915087601f83011261399f578283fd5b8135818111156139b1576139b1614339565b604051601f8201601f19908116603f011681019083821181831017156139d9576139d9614339565b816040528281528a60208487010111156139f1578586fd5b82602086016020830137918201602001949094529598949750929550505050565b60008060408385031215613a24578182fd5b613a2d83613860565b91506138f96020840161387c565b60008060408385031215613a4d578182fd5b613a5683613860565b946020939093013593505050565b600060208284031215613a75578081fd5b81356138c98161434f565b600060208284031215613a91578081fd5b81516138c98161434f565b600060208284031215613aad578081fd5b5035919050565b600080600080600080600080610100898b031215613ad0578384fd5b88359750613ae060208a0161388c565b9650613aee60408a0161388c565b9550613afc60608a0161388c565b9450613b0a60808a0161388c565b9350613b1860a08a0161389e565b9250613b2660c08a0161387c565b9150613b3460e08a0161387c565b90509295985092959890939650565b60008060408385031215613b55578182fd5b50508035926020909101359150565b600060208284031215613b75578081fd5b6138c98261389e565b60008060408385031215613b90578182fd5b613a568361389e565b60008060008060008060008060006101208a8c031215613bb7578283fd5b613bc08a61389e565b985060208a01359750613bd560408b0161388c565b9650613be360608b0161388c565b9550613bf160808b0161388c565b9450613bff60a08b0161388c565b9350613c0d60c08b0161389e565b9250613c1b60e08b0161387c565b9150613c2a6101008b0161387c565b90509295985092959850929598565b60008151808452613c51816020860160208601614264565b601f01601f19169290920160200192915050565b60008251613c77818460208701614264565b7f2000000000000000000000000000000000000000000000000000000000000000920191825250600101919050565b7f646174613a6170706c69636174696f6e2f6a736f6e3b6261736536342c000000815260008251613cde81601d850160208701614264565b91909101601d0192915050565b7f7b226e616d65223a2022426c6f636b636861696e20426174746c65204172656e8152600060207f6120000000000000000000000000000000000000000000000000000000000000818401528751613d498160228601848c01614264565b875190840190613d5f8160228401858c01614264565b7f222c226465736372697074696f6e223a20225468697320000000000000000000602292909101918201528651613d9c8160398401858b01614264565b8651910190613db18160398401858a01614264565b7f204e46542069732070617274206f66206120736d616c6c2073616d706c652063603992909101918201527f6f6c6c656374696f6e20666f722074686520426c6f636b636861696e2042617460598201527f746c65204172656e612067616d652e222c2022696d616765223a20220000000060798201528451613e3a8160958401858901614264565b613e6c6095828401017f227d000000000000000000000000000000000000000000000000000000000000815260020190565b9a9950505050505050505050565b60006001600160a01b03808716835280861660208401525083604083015260806060830152613eac6080830184613c39565b9695505050505050565b60006020808301818452808551808352604092508286019150828160051b870101848801865b83811015613fa357603f19898403018552815161014060ff825116855288820151818a870152613f0e82870182613c39565b9150508782015185820389870152613f268282613c39565b9150506060808301519250613f8f8187018461ffff8082511683528060208301511660208401528060408301511660408401528060608301511660608401525060ff608082015116608083015260a0810151151560a083015260c0810151151560c08301525050565b509588019593505090860190600101613edc565b509098975050505050505050565b6020810160028310613fd357634e487b7160e01b600052602160045260246000fd5b91905290565b6020815260006138c96020830184613c39565b60e08101610562828461ffff8082511683528060208301511660208401528060408301511660408401528060608301511660608401525060ff608082015116608083015260a0810151151560a083015260c0810151151560c08301525050565b6000602080835260ff808551168285015281850151604060808187015261407660a0870183613c39565b915080870151601f1960608189860301818a01526140948584613c39565b8a8201518a8203840160808c015280518083529196508801935087860190600581901b870189018a5b8281101561417e578589830301845286516101408b82511684528c820151818e8601526140ec82860182613c39565b915050898201518482038b8601526141048282613c39565b91505086820151915061416b8785018361ffff8082511683528060208301511660208401528060408301511660408401528060608301511660608401525060ff608082015116608083015260a0810151151560a083015260c0810151151560c08301525050565b978c0197948c01949250506001016140bd565b509c9b505050505050505050505050565b82815261010081016138c9602083018461ffff8082511683528060208301511660208401528060408301511660408401528060608301511660608401525060ff608082015116608083015260a0810151151560a083015260c0810151151560c08301525050565b6000821982111561420957614209614323565b500190565b60008261422957634e487b7160e01b81526012600452602481fd5b500490565b600081600019048311821515161561424857614248614323565b500290565b60008282101561425f5761425f614323565b500390565b60005b8381101561427f578181015183820152602001614267565b838111156122365750506000910152565b600060ff8216806142a3576142a3614323565b6000190192915050565b600181811c908216806142c157607f821691505b602082108114156142e257634e487b7160e01b600052602260045260246000fd5b50919050565b60006000198214156142fc576142fc614323565b5060010190565b600060ff821660ff81141561431a5761431a614323565b60010192915050565b634e487b7160e01b600052601160045260246000fd5b634e487b7160e01b600052604160045260246000fd5b6001600160e01b031981168114612d1457600080fdfe68747470733a2f2f697066732e696f2f697066732f516d5335434b616b75767931346f46424e474b5332417379783764376279374e45707956784275393864656275422f6368617261637465725f696465615f325f62672e706e6768747470733a2f2f697066732e696f2f697066732f516d513436477a6265615a7775393836615046364d674d6262564b316a4668536275586b32564c4c5634655452572f6369676172657474652e706e6768747470733a2f2f697066732e696f2f697066732f516d513436477a6265615a7775393836615046364d674d6262564b316a4668536275586b32564c4c5634655452572f6579655f6c656e7365722e706e6768747470733a2f2f697066732e696f2f697066732f516d5335434b616b75767931346f46424e474b5332417379783764376279374e45707956784275393864656275422f6368617261637465725f696465615f312e706e674142434445464748494a4b4c4d4e4f505152535455565758595a6162636465666768696a6b6c6d6e6f707172737475767778797a303132333435363738392b2f68747470733a2f2f697066732e696f2f697066732f516d5335434b616b75767931346f46424e474b5332417379783764376279374e45707956784275393864656275422f6368617261637465725f696465615f332e706e6768747470733a2f2f697066732e696f2f697066732f516d513436477a6265615a7775393836615046364d674d6262564b316a4668536275586b32564c4c5634655452572f6861742e706e6768747470733a2f2f697066732e696f2f697066732f516d5335434b616b75767931346f46424e474b5332417379783764376279374e45707956784275393864656275422f6368617261637465725f696465615f335f62672e706e6768747470733a2f2f697066732e696f2f697066732f516d5335434b616b75767931346f46424e474b5332417379783764376279374e45707956784275393864656275422f6368617261637465725f696465615f322e706e6768747470733a2f2f697066732e696f2f697066732f516d5335434b616b75767931346f46424e474b5332417379783764376279374e45707956784275393864656275422f6368617261637465725f696465615f315f62672e706e67a2646970667358221220aea6bbfce8afec3b476c08c44e92c0238718ad90ba617800399fd56a752cc34c64736f6c63430008040033",
  "linkReferences": {},
  "deployedLinkReferences": {}
}