{
  "_format": "hh-sol-artifact-1",
  "contractName": "BBGameObject",
  "sourceName": "contracts/BBGameObject.sol",
  "abi": [
    {
      "inputs": [],
      "stateMutability": "nonpayable",
      "type": "constructor"
    },
    {
      "anonymous": false,
      "inputs": [
        {
          "indexed": true,
          "internalType": "address",
          "name": "owner",
          "type": "address"
        },
        {
          "indexed": true,
          "internalType": "address",
          "name": "approved",
          "type": "address"
        },
        {
          "indexed": true,
          "internalType": "uint256",
          "name": "tokenId",
          "type": "uint256"
        }
      ],
      "name": "Approval",
      "type": "event"
    },
    {
      "anonymous": false,
      "inputs": [
        {
          "indexed": true,
          "internalType": "address",
          "name": "owner",
          "type": "address"
        },
        {
          "indexed": true,
          "internalType": "address",
          "name": "operator",
          "type": "address"
        },
        {
          "indexed": false,
          "internalType": "bool",
          "name": "approved",
          "type": "bool"
        }
      ],
      "name": "ApprovalForAll",
      "type": "event"
    },
    {
      "anonymous": false,
      "inputs": [
        {
          "indexed": false,
          "internalType": "address",
          "name": "",
          "type": "address"
        },
        {
          "indexed": false,
          "internalType": "uint256",
          "name": "",
          "type": "uint256"
        }
      ],
      "name": "MintedObject",
      "type": "event"
    },
    {
      "anonymous": false,
      "inputs": [
        {
          "indexed": true,
          "internalType": "address",
          "name": "previousOwner",
          "type": "address"
        },
        {
          "indexed": true,
          "internalType": "address",
          "name": "newOwner",
          "type": "address"
        }
      ],
      "name": "OwnershipTransferred",
      "type": "event"
    },
    {
      "anonymous": false,
      "inputs": [
        {
          "indexed": true,
          "internalType": "address",
          "name": "from",
          "type": "address"
        },
        {
          "indexed": true,
          "internalType": "address",
          "name": "to",
          "type": "address"
        },
        {
          "indexed": true,
          "internalType": "uint256",
          "name": "tokenId",
          "type": "uint256"
        }
      ],
      "name": "Transfer",
      "type": "event"
    },
    {
      "anonymous": false,
      "inputs": [
        {
          "indexed": false,
          "internalType": "address",
          "name": "",
          "type": "address"
        }
      ],
      "name": "UpdatedObject",
      "type": "event"
    },
    {
      "inputs": [
        {
          "internalType": "address",
          "name": "to",
          "type": "address"
        },
        {
          "internalType": "uint256",
          "name": "tokenId",
          "type": "uint256"
        }
      ],
      "name": "approve",
      "outputs": [],
      "stateMutability": "nonpayable",
      "type": "function"
    },
    {
      "inputs": [
        {
          "internalType": "address",
          "name": "owner",
          "type": "address"
        }
      ],
      "name": "balanceOf",
      "outputs": [
        {
          "internalType": "uint256",
          "name": "",
          "type": "uint256"
        }
      ],
      "stateMutability": "view",
      "type": "function"
    },
    {
      "inputs": [
        {
          "internalType": "uint256",
          "name": "tokenId",
          "type": "uint256"
        }
      ],
      "name": "getApproved",
      "outputs": [
        {
          "internalType": "address",
          "name": "",
          "type": "address"
        }
      ],
      "stateMutability": "view",
      "type": "function"
    },
    {
      "inputs": [
        {
          "internalType": "address",
          "name": "owner",
          "type": "address"
        },
        {
          "internalType": "address",
          "name": "operator",
          "type": "address"
        }
      ],
      "name": "isApprovedForAll",
      "outputs": [
        {
          "internalType": "bool",
          "name": "",
          "type": "bool"
        }
      ],
      "stateMutability": "view",
      "type": "function"
    },
    {
      "inputs": [
        {
          "internalType": "string",
          "name": "name",
          "type": "string"
        },
        {
          "internalType": "string",
          "name": "desc",
          "type": "string"
        },
        {
          "internalType": "string",
          "name": "image",
          "type": "string"
        },
        {
          "internalType": "string",
          "name": "objectType",
          "type": "string"
        }
      ],
      "name": "mintGameObject",
      "outputs": [],
      "stateMutability": "nonpayable",
      "type": "function"
    },
    {
      "inputs": [],
      "name": "name",
      "outputs": [
        {
          "internalType": "string",
          "name": "",
          "type": "string"
        }
      ],
      "stateMutability": "view",
      "type": "function"
    },
    {
      "inputs": [],
      "name": "owner",
      "outputs": [
        {
          "internalType": "address",
          "name": "",
          "type": "address"
        }
      ],
      "stateMutability": "view",
      "type": "function"
    },
    {
      "inputs": [
        {
          "internalType": "uint256",
          "name": "tokenId",
          "type": "uint256"
        }
      ],
      "name": "ownerOf",
      "outputs": [
        {
          "internalType": "address",
          "name": "",
          "type": "address"
        }
      ],
      "stateMutability": "view",
      "type": "function"
    },
    {
      "inputs": [],
      "name": "renounceOwnership",
      "outputs": [],
      "stateMutability": "nonpayable",
      "type": "function"
    },
    {
      "inputs": [
        {
          "internalType": "address",
          "name": "from",
          "type": "address"
        },
        {
          "internalType": "address",
          "name": "to",
          "type": "address"
        },
        {
          "internalType": "uint256",
          "name": "tokenId",
          "type": "uint256"
        }
      ],
      "name": "safeTransferFrom",
      "outputs": [],
      "stateMutability": "nonpayable",
      "type": "function"
    },
    {
      "inputs": [
        {
          "internalType": "address",
          "name": "from",
          "type": "address"
        },
        {
          "internalType": "address",
          "name": "to",
          "type": "address"
        },
        {
          "internalType": "uint256",
          "name": "tokenId",
          "type": "uint256"
        },
        {
          "internalType": "bytes",
          "name": "_data",
          "type": "bytes"
        }
      ],
      "name": "safeTransferFrom",
      "outputs": [],
      "stateMutability": "nonpayable",
      "type": "function"
    },
    {
      "inputs": [
        {
          "internalType": "address",
          "name": "operator",
          "type": "address"
        },
        {
          "internalType": "bool",
          "name": "approved",
          "type": "bool"
        }
      ],
      "name": "setApprovalForAll",
      "outputs": [],
      "stateMutability": "nonpayable",
      "type": "function"
    },
    {
      "inputs": [
        {
          "internalType": "bytes4",
          "name": "interfaceId",
          "type": "bytes4"
        }
      ],
      "name": "supportsInterface",
      "outputs": [
        {
          "internalType": "bool",
          "name": "",
          "type": "bool"
        }
      ],
      "stateMutability": "view",
      "type": "function"
    },
    {
      "inputs": [],
      "name": "symbol",
      "outputs": [
        {
          "internalType": "string",
          "name": "",
          "type": "string"
        }
      ],
      "stateMutability": "view",
      "type": "function"
    },
    {
      "inputs": [
        {
          "internalType": "uint256",
          "name": "tokenId",
          "type": "uint256"
        }
      ],
      "name": "tokenURI",
      "outputs": [
        {
          "internalType": "string",
          "name": "",
          "type": "string"
        }
      ],
      "stateMutability": "view",
      "type": "function"
    },
    {
      "inputs": [
        {
          "internalType": "address",
          "name": "from",
          "type": "address"
        },
        {
          "internalType": "address",
          "name": "to",
          "type": "address"
        },
        {
          "internalType": "uint256",
          "name": "tokenId",
          "type": "uint256"
        }
      ],
      "name": "transferFrom",
      "outputs": [],
      "stateMutability": "nonpayable",
      "type": "function"
    },
    {
      "inputs": [
        {
          "internalType": "address",
          "name": "newOwner",
          "type": "address"
        }
      ],
      "name": "transferOwnership",
      "outputs": [],
      "stateMutability": "nonpayable",
      "type": "function"
    }
  ],
  "bytecode": "0x60806040523480156200001157600080fd5b506040518060400160405280601981526020017f426174746c65204172656e612047616d65204f626a65637473000000000000008152506040518060400160405280600481526020017f4242474f00000000000000000000000000000000000000000000000000000000815250816000908051906020019062000096929190620001a6565b508060019080519060200190620000af929190620001a6565b505050620000d2620000c6620000d860201b60201c565b620000e060201b60201c565b620002bb565b600033905090565b6000600760009054906101000a900473ffffffffffffffffffffffffffffffffffffffff16905081600760006101000a81548173ffffffffffffffffffffffffffffffffffffffff021916908373ffffffffffffffffffffffffffffffffffffffff1602179055508173ffffffffffffffffffffffffffffffffffffffff168173ffffffffffffffffffffffffffffffffffffffff167f8be0079c531659141344cd1fd0a4f28419497f9722a3daafe3b4186f6b6457e060405160405180910390a35050565b828054620001b49062000256565b90600052602060002090601f016020900481019282620001d8576000855562000224565b82601f10620001f357805160ff191683800117855562000224565b8280016001018555821562000224579182015b828111156200022357825182559160200191906001019062000206565b5b50905062000233919062000237565b5090565b5b808211156200025257600081600090555060010162000238565b5090565b600060028204905060018216806200026f57607f821691505b602082108114156200028657620002856200028c565b5b50919050565b7f4e487b7100000000000000000000000000000000000000000000000000000000600052602260045260246000fd5b61359b80620002cb6000396000f3fe608060405234801561001057600080fd5b506004361061010b5760003560e01c8063715018a6116100a2578063a22cb46511610071578063a22cb465146102a4578063b88d4fde146102c0578063c87b56dd146102dc578063e985e9c51461030c578063f2fde38b1461033c5761010b565b8063715018a61461024257806382981d991461024c5780638da5cb5b1461026857806395d89b41146102865761010b565b806323b872dd116100de57806323b872dd146101aa57806342842e0e146101c65780636352211e146101e257806370a08231146102125761010b565b806301ffc9a71461011057806306fdde0314610140578063081812fc1461015e578063095ea7b31461018e575b600080fd5b61012a60048036038101906101259190612157565b610358565b6040516101379190612837565b60405180910390f35b61014861043a565b6040516101559190612852565b60405180910390f35b6101786004803603810190610173919061227e565b6104cc565b60405161018591906127a7565b60405180910390f35b6101a860048036038101906101a3919061211b565b610551565b005b6101c460048036038101906101bf9190612015565b610669565b005b6101e060048036038101906101db9190612015565b6106c9565b005b6101fc60048036038101906101f7919061227e565b6106e9565b60405161020991906127a7565b60405180910390f35b61022c60048036038101906102279190611fb0565b61079b565b6040516102399190612ab4565b60405180910390f35b61024a610853565b005b610266600480360381019061026191906121a9565b6108db565b005b610270610960565b60405161027d91906127a7565b60405180910390f35b61028e61098a565b60405161029b9190612852565b60405180910390f35b6102be60048036038101906102b991906120df565b610a1c565b005b6102da60048036038101906102d59190612064565b610a32565b005b6102f660048036038101906102f1919061227e565b610a94565b6040516103039190612852565b60405180910390f35b61032660048036038101906103219190611fd9565b610be6565b6040516103339190612837565b60405180910390f35b61035660048036038101906103519190611fb0565b610c7a565b005b60007f80ac58cd000000000000000000000000000000000000000000000000000000007bffffffffffffffffffffffffffffffffffffffffffffffffffffffff1916827bffffffffffffffffffffffffffffffffffffffffffffffffffffffff1916148061042357507f5b5e139f000000000000000000000000000000000000000000000000000000007bffffffffffffffffffffffffffffffffffffffffffffffffffffffff1916827bffffffffffffffffffffffffffffffffffffffffffffffffffffffff1916145b80610433575061043282610d72565b5b9050919050565b60606000805461044990612d33565b80601f016020809104026020016040519081016040528092919081815260200182805461047590612d33565b80156104c25780601f10610497576101008083540402835291602001916104c2565b820191906000526020600020905b8154815290600101906020018083116104a557829003601f168201915b5050505050905090565b60006104d782610ddc565b610516576040517f08c379a000000000000000000000000000000000000000000000000000000000815260040161050d90612a14565b60405180910390fd5b6004600083815260200190815260200160002060009054906101000a900473ffffffffffffffffffffffffffffffffffffffff169050919050565b600061055c826106e9565b90508073ffffffffffffffffffffffffffffffffffffffff168373ffffffffffffffffffffffffffffffffffffffff1614156105cd576040517f08c379a00000000000000000000000000000000000000000000000000000000081526004016105c490612a74565b60405180910390fd5b8073ffffffffffffffffffffffffffffffffffffffff166105ec610e48565b73ffffffffffffffffffffffffffffffffffffffff16148061061b575061061a81610615610e48565b610be6565b5b61065a576040517f08c379a000000000000000000000000000000000000000000000000000000000815260040161065190612954565b60405180910390fd5b6106648383610e50565b505050565b61067a610674610e48565b82610f09565b6106b9576040517f08c379a00000000000000000000000000000000000000000000000000000000081526004016106b090612a94565b60405180910390fd5b6106c4838383610fe7565b505050565b6106e483838360405180602001604052806000815250610a32565b505050565b6000806002600084815260200190815260200160002060009054906101000a900473ffffffffffffffffffffffffffffffffffffffff169050600073ffffffffffffffffffffffffffffffffffffffff168173ffffffffffffffffffffffffffffffffffffffff161415610792576040517f08c379a000000000000000000000000000000000000000000000000000000000815260040161078990612994565b60405180910390fd5b80915050919050565b60008073ffffffffffffffffffffffffffffffffffffffff168273ffffffffffffffffffffffffffffffffffffffff16141561080c576040517f08c379a000000000000000000000000000000000000000000000000000000000815260040161080390612974565b60405180910390fd5b600360008373ffffffffffffffffffffffffffffffffffffffff1673ffffffffffffffffffffffffffffffffffffffff168152602001908152602001600020549050919050565b61085b610e48565b73ffffffffffffffffffffffffffffffffffffffff16610879610960565b73ffffffffffffffffffffffffffffffffffffffff16146108cf576040517f08c379a00000000000000000000000000000000000000000000000000000000081526004016108c690612a34565b60405180910390fd5b6108d9600061124e565b565b60006108e76008611314565b905060006108fb8a8a8a8a8a8a8a8a611322565b90506109073383611393565b61091182826113b1565b61091b6008611425565b7f3ae966244a863cab78c88fce922b4d67314ddfcea3bc1769618d164e1725bea2338360405161094c92919061280e565b60405180910390a150505050505050505050565b6000600760009054906101000a900473ffffffffffffffffffffffffffffffffffffffff16905090565b60606001805461099990612d33565b80601f01602080910402602001604051908101604052809291908181526020018280546109c590612d33565b8015610a125780601f106109e757610100808354040283529160200191610a12565b820191906000526020600020905b8154815290600101906020018083116109f557829003601f168201915b5050505050905090565b610a2e610a27610e48565b838361143b565b5050565b610a43610a3d610e48565b83610f09565b610a82576040517f08c379a0000000000000000000000000000000000000000000000000000000008152600401610a7990612a94565b60405180910390fd5b610a8e848484846115a8565b50505050565b6060610a9f82610ddc565b610ade576040517f08c379a0000000000000000000000000000000000000000000000000000000008152600401610ad5906129f4565b60405180910390fd5b6000600660008481526020019081526020016000208054610afe90612d33565b80601f0160208091040260200160405190810160405280929190818152602001828054610b2a90612d33565b8015610b775780601f10610b4c57610100808354040283529160200191610b77565b820191906000526020600020905b815481529060010190602001808311610b5a57829003601f168201915b505050505090506000610b88611604565b9050600081511415610b9e578192505050610be1565b600082511115610bd3578082604051602001610bbb9291906126e4565b60405160208183030381529060405292505050610be1565b610bdc8461161b565b925050505b919050565b6000600560008473ffffffffffffffffffffffffffffffffffffffff1673ffffffffffffffffffffffffffffffffffffffff16815260200190815260200160002060008373ffffffffffffffffffffffffffffffffffffffff1673ffffffffffffffffffffffffffffffffffffffff16815260200190815260200160002060009054906101000a900460ff16905092915050565b610c82610e48565b73ffffffffffffffffffffffffffffffffffffffff16610ca0610960565b73ffffffffffffffffffffffffffffffffffffffff1614610cf6576040517f08c379a0000000000000000000000000000000000000000000000000000000008152600401610ced90612a34565b60405180910390fd5b600073ffffffffffffffffffffffffffffffffffffffff168173ffffffffffffffffffffffffffffffffffffffff161415610d66576040517f08c379a0000000000000000000000000000000000000000000000000000000008152600401610d5d90612894565b60405180910390fd5b610d6f8161124e565b50565b60007f01ffc9a7000000000000000000000000000000000000000000000000000000007bffffffffffffffffffffffffffffffffffffffffffffffffffffffff1916827bffffffffffffffffffffffffffffffffffffffffffffffffffffffff1916149050919050565b60008073ffffffffffffffffffffffffffffffffffffffff166002600084815260200190815260200160002060009054906101000a900473ffffffffffffffffffffffffffffffffffffffff1673ffffffffffffffffffffffffffffffffffffffff1614159050919050565b600033905090565b816004600083815260200190815260200160002060006101000a81548173ffffffffffffffffffffffffffffffffffffffff021916908373ffffffffffffffffffffffffffffffffffffffff160217905550808273ffffffffffffffffffffffffffffffffffffffff16610ec3836106e9565b73ffffffffffffffffffffffffffffffffffffffff167f8c5be1e5ebec7d5bd14f71427d1e84f3dd0314c0f7b2291e5b200ac8c7c3b92560405160405180910390a45050565b6000610f1482610ddc565b610f53576040517f08c379a0000000000000000000000000000000000000000000000000000000008152600401610f4a90612934565b60405180910390fd5b6000610f5e836106e9565b90508073ffffffffffffffffffffffffffffffffffffffff168473ffffffffffffffffffffffffffffffffffffffff161480610fa05750610f9f8185610be6565b5b80610fde57508373ffffffffffffffffffffffffffffffffffffffff16610fc6846104cc565b73ffffffffffffffffffffffffffffffffffffffff16145b91505092915050565b8273ffffffffffffffffffffffffffffffffffffffff16611007826106e9565b73ffffffffffffffffffffffffffffffffffffffff161461105d576040517f08c379a0000000000000000000000000000000000000000000000000000000008152600401611054906128b4565b60405180910390fd5b600073ffffffffffffffffffffffffffffffffffffffff168273ffffffffffffffffffffffffffffffffffffffff1614156110cd576040517f08c379a00000000000000000000000000000000000000000000000000000000081526004016110c4906128f4565b60405180910390fd5b6110d88383836116c2565b6110e3600082610e50565b6001600360008573ffffffffffffffffffffffffffffffffffffffff1673ffffffffffffffffffffffffffffffffffffffff16815260200190815260200160002060008282546111339190612c49565b925050819055506001600360008473ffffffffffffffffffffffffffffffffffffffff1673ffffffffffffffffffffffffffffffffffffffff168152602001908152602001600020600082825461118a9190612b68565b92505081905550816002600083815260200190815260200160002060006101000a81548173ffffffffffffffffffffffffffffffffffffffff021916908373ffffffffffffffffffffffffffffffffffffffff160217905550808273ffffffffffffffffffffffffffffffffffffffff168473ffffffffffffffffffffffffffffffffffffffff167fddf252ad1be2c89b69c2b068fc378daa952ba7f163c4a11628f55a4df523b3ef60405160405180910390a46112498383836116c7565b505050565b6000600760009054906101000a900473ffffffffffffffffffffffffffffffffffffffff16905081600760006101000a81548173ffffffffffffffffffffffffffffffffffffffff021916908373ffffffffffffffffffffffffffffffffffffffff1602179055508173ffffffffffffffffffffffffffffffffffffffff168173ffffffffffffffffffffffffffffffffffffffff167f8be0079c531659141344cd1fd0a4f28419497f9722a3daafe3b4186f6b6457e060405160405180910390a35050565b600081600001549050919050565b6060600061135c8a8a8a8a8a8a8a8a604051602001611348989796959493929190612708565b6040516020818303038152906040526116cc565b90506000816040516020016113719190612785565b6040516020818303038152906040529050809250505098975050505050505050565b6113ad828260405180602001604052806000815250611856565b5050565b6113ba82610ddc565b6113f9576040517f08c379a00000000000000000000000000000000000000000000000000000000081526004016113f0906129b4565b60405180910390fd5b80600660008481526020019081526020016000209080519060200190611420929190611df2565b505050565b6001816000016000828254019250508190555050565b8173ffffffffffffffffffffffffffffffffffffffff168373ffffffffffffffffffffffffffffffffffffffff1614156114aa576040517f08c379a00000000000000000000000000000000000000000000000000000000081526004016114a190612914565b60405180910390fd5b80600560008573ffffffffffffffffffffffffffffffffffffffff1673ffffffffffffffffffffffffffffffffffffffff16815260200190815260200160002060008473ffffffffffffffffffffffffffffffffffffffff1673ffffffffffffffffffffffffffffffffffffffff16815260200190815260200160002060006101000a81548160ff0219169083151502179055508173ffffffffffffffffffffffffffffffffffffffff168373ffffffffffffffffffffffffffffffffffffffff167f17307eab39ab6107e8899845ad3d59bd9653f200f220920489ca2b5937696c318360405161159b9190612837565b60405180910390a3505050565b6115b3848484610fe7565b6115bf848484846118b1565b6115fe576040517f08c379a00000000000000000000000000000000000000000000000000000000081526004016115f590612874565b60405180910390fd5b50505050565b606060405180602001604052806000815250905090565b606061162682610ddc565b611665576040517f08c379a000000000000000000000000000000000000000000000000000000000815260040161165c90612a54565b60405180910390fd5b600061166f611604565b9050600081511161168f57604051806020016040528060008152506116ba565b8061169984611a48565b6040516020016116aa9291906126e4565b6040516020818303038152906040525b915050919050565b505050565b505050565b60606000825114156116ef57604051806020016040528060008152509050611851565b6000604051806060016040528060408152602001613526604091399050600060036002855161171e9190612b68565b6117289190612bbe565b60046117349190612bef565b67ffffffffffffffff811115611773577f4e487b7100000000000000000000000000000000000000000000000000000000600052604160045260246000fd5b6040519080825280601f01601f1916602001820160405280156117a55781602001600182028036833780820191505090505b509050600182016020820185865187015b80821015611811576003820191508151603f8160121c168501518453600184019350603f81600c1c168501518453600184019350603f8160061c168501518453600184019350603f81168501518453600184019350506117b6565b505060038651066001811461182d576002811461184057611848565b603d6001830353603d6002830353611848565b603d60018303535b50505080925050505b919050565b6118608383611bf5565b61186d60008484846118b1565b6118ac576040517f08c379a00000000000000000000000000000000000000000000000000000000081526004016118a390612874565b60405180910390fd5b505050565b60006118d28473ffffffffffffffffffffffffffffffffffffffff16611dcf565b15611a3b578373ffffffffffffffffffffffffffffffffffffffff1663150b7a026118fb610e48565b8786866040518563ffffffff1660e01b815260040161191d94939291906127c2565b602060405180830381600087803b15801561193757600080fd5b505af192505050801561196857506040513d601f19601f820116820180604052508101906119659190612180565b60015b6119eb573d8060008114611998576040519150601f19603f3d011682016040523d82523d6000602084013e61199d565b606091505b506000815114156119e3576040517f08c379a00000000000000000000000000000000000000000000000000000000081526004016119da90612874565b60405180910390fd5b805181602001fd5b63150b7a0260e01b7bffffffffffffffffffffffffffffffffffffffffffffffffffffffff1916817bffffffffffffffffffffffffffffffffffffffffffffffffffffffff191614915050611a40565b600190505b949350505050565b60606000821415611a90576040518060400160405280600181526020017f30000000000000000000000000000000000000000000000000000000000000008152509050611bf0565b600082905060005b60008214611ac2578080611aab90612d96565b915050600a82611abb9190612bbe565b9150611a98565b60008167ffffffffffffffff811115611b04577f4e487b7100000000000000000000000000000000000000000000000000000000600052604160045260246000fd5b6040519080825280601f01601f191660200182016040528015611b365781602001600182028036833780820191505090505b5090505b60008514611be957600182611b4f9190612c49565b9150600a85611b5e9190612ddf565b6030611b6a9190612b68565b60f81b818381518110611ba6577f4e487b7100000000000000000000000000000000000000000000000000000000600052603260045260246000fd5b60200101907effffffffffffffffffffffffffffffffffffffffffffffffffffffffffffff1916908160001a905350600a85611be29190612bbe565b9450611b3a565b8093505050505b919050565b600073ffffffffffffffffffffffffffffffffffffffff168273ffffffffffffffffffffffffffffffffffffffff161415611c65576040517f08c379a0000000000000000000000000000000000000000000000000000000008152600401611c5c906129d4565b60405180910390fd5b611c6e81610ddc565b15611cae576040517f08c379a0000000000000000000000000000000000000000000000000000000008152600401611ca5906128d4565b60405180910390fd5b611cba600083836116c2565b6001600360008473ffffffffffffffffffffffffffffffffffffffff1673ffffffffffffffffffffffffffffffffffffffff1681526020019081526020016000206000828254611d0a9190612b68565b92505081905550816002600083815260200190815260200160002060006101000a81548173ffffffffffffffffffffffffffffffffffffffff021916908373ffffffffffffffffffffffffffffffffffffffff160217905550808273ffffffffffffffffffffffffffffffffffffffff16600073ffffffffffffffffffffffffffffffffffffffff167fddf252ad1be2c89b69c2b068fc378daa952ba7f163c4a11628f55a4df523b3ef60405160405180910390a4611dcb600083836116c7565b5050565b6000808273ffffffffffffffffffffffffffffffffffffffff163b119050919050565b828054611dfe90612d33565b90600052602060002090601f016020900481019282611e205760008555611e67565b82601f10611e3957805160ff1916838001178555611e67565b82800160010185558215611e67579182015b82811115611e66578251825591602001919060010190611e4b565b5b509050611e749190611e78565b5090565b5b80821115611e91576000816000905550600101611e79565b5090565b6000611ea8611ea384612af4565b612acf565b905082815260208101848484011115611ec057600080fd5b611ecb848285612cf1565b509392505050565b600081359050611ee2816134c9565b92915050565b600081359050611ef7816134e0565b92915050565b600081359050611f0c816134f7565b92915050565b600081519050611f21816134f7565b92915050565b600082601f830112611f3857600080fd5b8135611f48848260208601611e95565b91505092915050565b60008083601f840112611f6357600080fd5b8235905067ffffffffffffffff811115611f7c57600080fd5b602083019150836001820283011115611f9457600080fd5b9250929050565b600081359050611faa8161350e565b92915050565b600060208284031215611fc257600080fd5b6000611fd084828501611ed3565b91505092915050565b60008060408385031215611fec57600080fd5b6000611ffa85828601611ed3565b925050602061200b85828601611ed3565b9150509250929050565b60008060006060848603121561202a57600080fd5b600061203886828701611ed3565b935050602061204986828701611ed3565b925050604061205a86828701611f9b565b9150509250925092565b6000806000806080858703121561207a57600080fd5b600061208887828801611ed3565b945050602061209987828801611ed3565b93505060406120aa87828801611f9b565b925050606085013567ffffffffffffffff8111156120c757600080fd5b6120d387828801611f27565b91505092959194509250565b600080604083850312156120f257600080fd5b600061210085828601611ed3565b925050602061211185828601611ee8565b9150509250929050565b6000806040838503121561212e57600080fd5b600061213c85828601611ed3565b925050602061214d85828601611f9b565b9150509250929050565b60006020828403121561216957600080fd5b600061217784828501611efd565b91505092915050565b60006020828403121561219257600080fd5b60006121a084828501611f12565b91505092915050565b6000806000806000806000806080898b0312156121c557600080fd5b600089013567ffffffffffffffff8111156121df57600080fd5b6121eb8b828c01611f51565b9850985050602089013567ffffffffffffffff81111561220a57600080fd5b6122168b828c01611f51565b9650965050604089013567ffffffffffffffff81111561223557600080fd5b6122418b828c01611f51565b9450945050606089013567ffffffffffffffff81111561226057600080fd5b61226c8b828c01611f51565b92509250509295985092959890939650565b60006020828403121561229057600080fd5b600061229e84828501611f9b565b91505092915050565b6122b081612c7d565b82525050565b6122bf81612c8f565b82525050565b60006122d082612b25565b6122da8185612b3b565b93506122ea818560208601612d00565b6122f381612ecc565b840191505092915050565b600061230a8385612b5d565b9350612317838584612cf1565b82840190509392505050565b600061232e82612b30565b6123388185612b4c565b9350612348818560208601612d00565b61235181612ecc565b840191505092915050565b600061236782612b30565b6123718185612b5d565b9350612381818560208601612d00565b80840191505092915050565b600061239a601383612b5d565b91506123a582612edd565b601382019050919050565b60006123bd603283612b4c565b91506123c882612f06565b604082019050919050565b60006123e0602683612b4c565b91506123eb82612f55565b604082019050919050565b6000612403602583612b4c565b915061240e82612fa4565b604082019050919050565b6000612426600b83612b5d565b915061243182612ff3565b600b82019050919050565b6000612449601c83612b4c565b91506124548261301c565b602082019050919050565b600061246c602483612b4c565b915061247782613045565b604082019050919050565b600061248f601983612b4c565b915061249a82613094565b602082019050919050565b60006124b2602c83612b4c565b91506124bd826130bd565b604082019050919050565b60006124d5603883612b4c565b91506124e08261310c565b604082019050919050565b60006124f8602a83612b4c565b91506125038261315b565b604082019050919050565b600061251b602983612b4c565b9150612526826131aa565b604082019050919050565b600061253e602e83612b4c565b9150612549826131f9565b604082019050919050565b6000612561600283612b5d565b915061256c82613248565b600282019050919050565b6000612584602083612b4c565b915061258f82613271565b602082019050919050565b60006125a7603183612b4c565b91506125b28261329a565b604082019050919050565b60006125ca602c83612b4c565b91506125d5826132e9565b604082019050919050565b60006125ed602083612b4c565b91506125f882613338565b602082019050919050565b6000612610602f83612b4c565b915061261b82613361565b604082019050919050565b6000612633602183612b4c565b915061263e826133b0565b604082019050919050565b6000612656601d83612b5d565b9150612661826133ff565b601d82019050919050565b6000612679603183612b4c565b915061268482613428565b604082019050919050565b600061269c601283612b5d565b91506126a782613477565b601282019050919050565b60006126bf600c83612b5d565b91506126ca826134a0565b600c82019050919050565b6126de81612ce7565b82525050565b60006126f0828561235c565b91506126fc828461235c565b91508190509392505050565b600061271382612419565b9150612720828a8c6122fe565b915061272b8261238d565b915061273882888a6122fe565b9150612743826126b2565b91506127508286886122fe565b915061275b8261268f565b91506127688284866122fe565b915061277382612554565b91508190509998505050505050505050565b600061279082612649565b915061279c828461235c565b915081905092915050565b60006020820190506127bc60008301846122a7565b92915050565b60006080820190506127d760008301876122a7565b6127e460208301866122a7565b6127f160408301856126d5565b818103606083015261280381846122c5565b905095945050505050565b600060408201905061282360008301856122a7565b61283060208301846126d5565b9392505050565b600060208201905061284c60008301846122b6565b92915050565b6000602082019050818103600083015261286c8184612323565b905092915050565b6000602082019050818103600083015261288d816123b0565b9050919050565b600060208201905081810360008301526128ad816123d3565b9050919050565b600060208201905081810360008301526128cd816123f6565b9050919050565b600060208201905081810360008301526128ed8161243c565b9050919050565b6000602082019050818103600083015261290d8161245f565b9050919050565b6000602082019050818103600083015261292d81612482565b9050919050565b6000602082019050818103600083015261294d816124a5565b9050919050565b6000602082019050818103600083015261296d816124c8565b9050919050565b6000602082019050818103600083015261298d816124eb565b9050919050565b600060208201905081810360008301526129ad8161250e565b9050919050565b600060208201905081810360008301526129cd81612531565b9050919050565b600060208201905081810360008301526129ed81612577565b9050919050565b60006020820190508181036000830152612a0d8161259a565b9050919050565b60006020820190508181036000830152612a2d816125bd565b9050919050565b60006020820190508181036000830152612a4d816125e0565b9050919050565b60006020820190508181036000830152612a6d81612603565b9050919050565b60006020820190508181036000830152612a8d81612626565b9050919050565b60006020820190508181036000830152612aad8161266c565b9050919050565b6000602082019050612ac960008301846126d5565b92915050565b6000612ad9612aea565b9050612ae58282612d65565b919050565b6000604051905090565b600067ffffffffffffffff821115612b0f57612b0e612e9d565b5b612b1882612ecc565b9050602081019050919050565b600081519050919050565b600081519050919050565b600082825260208201905092915050565b600082825260208201905092915050565b600081905092915050565b6000612b7382612ce7565b9150612b7e83612ce7565b9250827fffffffffffffffffffffffffffffffffffffffffffffffffffffffffffffffff03821115612bb357612bb2612e10565b5b828201905092915050565b6000612bc982612ce7565b9150612bd483612ce7565b925082612be457612be3612e3f565b5b828204905092915050565b6000612bfa82612ce7565b9150612c0583612ce7565b9250817fffffffffffffffffffffffffffffffffffffffffffffffffffffffffffffffff0483118215151615612c3e57612c3d612e10565b5b828202905092915050565b6000612c5482612ce7565b9150612c5f83612ce7565b925082821015612c7257612c71612e10565b5b828203905092915050565b6000612c8882612cc7565b9050919050565b60008115159050919050565b60007fffffffff0000000000000000000000000000000000000000000000000000000082169050919050565b600073ffffffffffffffffffffffffffffffffffffffff82169050919050565b6000819050919050565b82818337600083830152505050565b60005b83811015612d1e578082015181840152602081019050612d03565b83811115612d2d576000848401525b50505050565b60006002820490506001821680612d4b57607f821691505b60208210811415612d5f57612d5e612e6e565b5b50919050565b612d6e82612ecc565b810181811067ffffffffffffffff82111715612d8d57612d8c612e9d565b5b80604052505050565b6000612da182612ce7565b91507fffffffffffffffffffffffffffffffffffffffffffffffffffffffffffffffff821415612dd457612dd3612e10565b5b600182019050919050565b6000612dea82612ce7565b9150612df583612ce7565b925082612e0557612e04612e3f565b5b828206905092915050565b7f4e487b7100000000000000000000000000000000000000000000000000000000600052601160045260246000fd5b7f4e487b7100000000000000000000000000000000000000000000000000000000600052601260045260246000fd5b7f4e487b7100000000000000000000000000000000000000000000000000000000600052602260045260246000fd5b7f4e487b7100000000000000000000000000000000000000000000000000000000600052604160045260246000fd5b6000601f19601f8301169050919050565b7f222c20226465736372697074696f6e223a202200000000000000000000000000600082015250565b7f4552433732313a207472616e7366657220746f206e6f6e20455243373231526560008201527f63656976657220696d706c656d656e7465720000000000000000000000000000602082015250565b7f4f776e61626c653a206e6577206f776e657220697320746865207a65726f206160008201527f6464726573730000000000000000000000000000000000000000000000000000602082015250565b7f4552433732313a207472616e736665722066726f6d20696e636f72726563742060008201527f6f776e6572000000000000000000000000000000000000000000000000000000602082015250565b7f7b20226e616d65223a2022000000000000000000000000000000000000000000600082015250565b7f4552433732313a20746f6b656e20616c7265616479206d696e74656400000000600082015250565b7f4552433732313a207472616e7366657220746f20746865207a65726f2061646460008201527f7265737300000000000000000000000000000000000000000000000000000000602082015250565b7f4552433732313a20617070726f766520746f2063616c6c657200000000000000600082015250565b7f4552433732313a206f70657261746f7220717565727920666f72206e6f6e657860008201527f697374656e7420746f6b656e0000000000000000000000000000000000000000602082015250565b7f4552433732313a20617070726f76652063616c6c6572206973206e6f74206f7760008201527f6e6572206e6f7220617070726f76656420666f7220616c6c0000000000000000602082015250565b7f4552433732313a2062616c616e636520717565727920666f7220746865207a6560008201527f726f206164647265737300000000000000000000000000000000000000000000602082015250565b7f4552433732313a206f776e657220717565727920666f72206e6f6e657869737460008201527f656e7420746f6b656e0000000000000000000000000000000000000000000000602082015250565b7f45524337323155524953746f726167653a2055524920736574206f66206e6f6e60008201527f6578697374656e7420746f6b656e000000000000000000000000000000000000602082015250565b7f227d000000000000000000000000000000000000000000000000000000000000600082015250565b7f4552433732313a206d696e7420746f20746865207a65726f2061646472657373600082015250565b7f45524337323155524953746f726167653a2055524920717565727920666f722060008201527f6e6f6e6578697374656e7420746f6b656e000000000000000000000000000000602082015250565b7f4552433732313a20617070726f76656420717565727920666f72206e6f6e657860008201527f697374656e7420746f6b656e0000000000000000000000000000000000000000602082015250565b7f4f776e61626c653a2063616c6c6572206973206e6f7420746865206f776e6572600082015250565b7f4552433732314d657461646174613a2055524920717565727920666f72206e6f60008201527f6e6578697374656e7420746f6b656e0000000000000000000000000000000000602082015250565b7f4552433732313a20617070726f76616c20746f2063757272656e74206f776e6560008201527f7200000000000000000000000000000000000000000000000000000000000000602082015250565b7f646174613a6170706c69636174696f6e2f6a736f6e3b6261736536342c000000600082015250565b7f4552433732313a207472616e736665722063616c6c6572206973206e6f74206f60008201527f776e6572206e6f7220617070726f766564000000000000000000000000000000602082015250565b7f222c226f626a6563745f74797065223a20220000000000000000000000000000600082015250565b7f222c22696d616765223a20220000000000000000000000000000000000000000600082015250565b6134d281612c7d565b81146134dd57600080fd5b50565b6134e981612c8f565b81146134f457600080fd5b50565b61350081612c9b565b811461350b57600080fd5b50565b61351781612ce7565b811461352257600080fd5b5056fe4142434445464748494a4b4c4d4e4f505152535455565758595a6162636465666768696a6b6c6d6e6f707172737475767778797a303132333435363738392b2fa2646970667358221220acbabed9467185c9784a7c892425f3f963af3e8ae9dbfaa499b01c98293e0db164736f6c63430008040033",
  "linkReferences": {},
  "deployedLinkReferences": {}
}