{
  "_format": "hh-sol-artifact-1",
  "contractName": "BBGameObject",
  "sourceName": "contracts/BBGameObject.sol",
  "abi": [
    {
      "inputs": [],
      "stateMutability": "nonpayable",
      "type": "constructor"
    },
    {
      "anonymous": false,
      "inputs": [
        {
          "indexed": true,
          "internalType": "address",
          "name": "owner",
          "type": "address"
        },
        {
          "indexed": true,
          "internalType": "address",
          "name": "approved",
          "type": "address"
        },
        {
          "indexed": true,
          "internalType": "uint256",
          "name": "tokenId",
          "type": "uint256"
        }
      ],
      "name": "Approval",
      "type": "event"
    },
    {
      "anonymous": false,
      "inputs": [
        {
          "indexed": true,
          "internalType": "address",
          "name": "owner",
          "type": "address"
        },
        {
          "indexed": true,
          "internalType": "address",
          "name": "operator",
          "type": "address"
        },
        {
          "indexed": false,
          "internalType": "bool",
          "name": "approved",
          "type": "bool"
        }
      ],
      "name": "ApprovalForAll",
      "type": "event"
    },
    {
      "anonymous": false,
      "inputs": [
        {
          "indexed": false,
          "internalType": "address",
          "name": "",
          "type": "address"
        }
      ],
      "name": "MintedObject",
      "type": "event"
    },
    {
      "anonymous": false,
      "inputs": [
        {
          "indexed": true,
          "internalType": "address",
          "name": "previousOwner",
          "type": "address"
        },
        {
          "indexed": true,
          "internalType": "address",
          "name": "newOwner",
          "type": "address"
        }
      ],
      "name": "OwnershipTransferred",
      "type": "event"
    },
    {
      "anonymous": false,
      "inputs": [
        {
          "indexed": true,
          "internalType": "address",
          "name": "from",
          "type": "address"
        },
        {
          "indexed": true,
          "internalType": "address",
          "name": "to",
          "type": "address"
        },
        {
          "indexed": true,
          "internalType": "uint256",
          "name": "tokenId",
          "type": "uint256"
        }
      ],
      "name": "Transfer",
      "type": "event"
    },
    {
      "anonymous": false,
      "inputs": [
        {
          "indexed": false,
          "internalType": "address",
          "name": "",
          "type": "address"
        }
      ],
      "name": "UpdatedObject",
      "type": "event"
    },
    {
      "inputs": [
        {
          "internalType": "address",
          "name": "to",
          "type": "address"
        },
        {
          "internalType": "uint256",
          "name": "tokenId",
          "type": "uint256"
        }
      ],
      "name": "approve",
      "outputs": [],
      "stateMutability": "nonpayable",
      "type": "function"
    },
    {
      "inputs": [
        {
          "internalType": "address",
          "name": "owner",
          "type": "address"
        }
      ],
      "name": "balanceOf",
      "outputs": [
        {
          "internalType": "uint256",
          "name": "",
          "type": "uint256"
        }
      ],
      "stateMutability": "view",
      "type": "function"
    },
    {
      "inputs": [
        {
          "internalType": "uint256",
          "name": "tokenId",
          "type": "uint256"
        }
      ],
      "name": "getApproved",
      "outputs": [
        {
          "internalType": "address",
          "name": "",
          "type": "address"
        }
      ],
      "stateMutability": "view",
      "type": "function"
    },
    {
      "inputs": [
        {
          "internalType": "address",
          "name": "owner",
          "type": "address"
        },
        {
          "internalType": "address",
          "name": "operator",
          "type": "address"
        }
      ],
      "name": "isApprovedForAll",
      "outputs": [
        {
          "internalType": "bool",
          "name": "",
          "type": "bool"
        }
      ],
      "stateMutability": "view",
      "type": "function"
    },
    {
      "inputs": [
        {
          "internalType": "string",
          "name": "name",
          "type": "string"
        },
        {
          "internalType": "string",
          "name": "desc",
          "type": "string"
        },
        {
          "internalType": "string",
          "name": "url",
          "type": "string"
        },
        {
          "internalType": "string",
          "name": "objectType",
          "type": "string"
        }
      ],
      "name": "mintGameObject",
      "outputs": [],
      "stateMutability": "nonpayable",
      "type": "function"
    },
    {
      "inputs": [],
      "name": "name",
      "outputs": [
        {
          "internalType": "string",
          "name": "",
          "type": "string"
        }
      ],
      "stateMutability": "view",
      "type": "function"
    },
    {
      "inputs": [],
      "name": "owner",
      "outputs": [
        {
          "internalType": "address",
          "name": "",
          "type": "address"
        }
      ],
      "stateMutability": "view",
      "type": "function"
    },
    {
      "inputs": [
        {
          "internalType": "uint256",
          "name": "tokenId",
          "type": "uint256"
        }
      ],
      "name": "ownerOf",
      "outputs": [
        {
          "internalType": "address",
          "name": "",
          "type": "address"
        }
      ],
      "stateMutability": "view",
      "type": "function"
    },
    {
      "inputs": [],
      "name": "renounceOwnership",
      "outputs": [],
      "stateMutability": "nonpayable",
      "type": "function"
    },
    {
      "inputs": [
        {
          "internalType": "address",
          "name": "from",
          "type": "address"
        },
        {
          "internalType": "address",
          "name": "to",
          "type": "address"
        },
        {
          "internalType": "uint256",
          "name": "tokenId",
          "type": "uint256"
        }
      ],
      "name": "safeTransferFrom",
      "outputs": [],
      "stateMutability": "nonpayable",
      "type": "function"
    },
    {
      "inputs": [
        {
          "internalType": "address",
          "name": "from",
          "type": "address"
        },
        {
          "internalType": "address",
          "name": "to",
          "type": "address"
        },
        {
          "internalType": "uint256",
          "name": "tokenId",
          "type": "uint256"
        },
        {
          "internalType": "bytes",
          "name": "_data",
          "type": "bytes"
        }
      ],
      "name": "safeTransferFrom",
      "outputs": [],
      "stateMutability": "nonpayable",
      "type": "function"
    },
    {
      "inputs": [
        {
          "internalType": "address",
          "name": "operator",
          "type": "address"
        },
        {
          "internalType": "bool",
          "name": "approved",
          "type": "bool"
        }
      ],
      "name": "setApprovalForAll",
      "outputs": [],
      "stateMutability": "nonpayable",
      "type": "function"
    },
    {
      "inputs": [
        {
          "internalType": "bytes4",
          "name": "interfaceId",
          "type": "bytes4"
        }
      ],
      "name": "supportsInterface",
      "outputs": [
        {
          "internalType": "bool",
          "name": "",
          "type": "bool"
        }
      ],
      "stateMutability": "view",
      "type": "function"
    },
    {
      "inputs": [],
      "name": "symbol",
      "outputs": [
        {
          "internalType": "string",
          "name": "",
          "type": "string"
        }
      ],
      "stateMutability": "view",
      "type": "function"
    },
    {
      "inputs": [
        {
          "internalType": "uint256",
          "name": "tokenId",
          "type": "uint256"
        }
      ],
      "name": "tokenURI",
      "outputs": [
        {
          "internalType": "string",
          "name": "",
          "type": "string"
        }
      ],
      "stateMutability": "view",
      "type": "function"
    },
    {
      "inputs": [
        {
          "internalType": "address",
          "name": "from",
          "type": "address"
        },
        {
          "internalType": "address",
          "name": "to",
          "type": "address"
        },
        {
          "internalType": "uint256",
          "name": "tokenId",
          "type": "uint256"
        }
      ],
      "name": "transferFrom",
      "outputs": [],
      "stateMutability": "nonpayable",
      "type": "function"
    },
    {
      "inputs": [
        {
          "internalType": "address",
          "name": "newOwner",
          "type": "address"
        }
      ],
      "name": "transferOwnership",
      "outputs": [],
      "stateMutability": "nonpayable",
      "type": "function"
    }
  ],
  "bytecode": "0x60806040523480156200001157600080fd5b506040518060400160405280601981526020017f426174746c65204172656e612047616d65204f626a65637473000000000000008152506040518060400160405280600481526020017f4242474f00000000000000000000000000000000000000000000000000000000815250816000908051906020019062000096929190620001a6565b508060019080519060200190620000af929190620001a6565b505050620000d2620000c6620000d860201b60201c565b620000e060201b60201c565b620002bb565b600033905090565b6000600760009054906101000a900473ffffffffffffffffffffffffffffffffffffffff16905081600760006101000a81548173ffffffffffffffffffffffffffffffffffffffff021916908373ffffffffffffffffffffffffffffffffffffffff1602179055508173ffffffffffffffffffffffffffffffffffffffff168173ffffffffffffffffffffffffffffffffffffffff167f8be0079c531659141344cd1fd0a4f28419497f9722a3daafe3b4186f6b6457e060405160405180910390a35050565b828054620001b49062000256565b90600052602060002090601f016020900481019282620001d8576000855562000224565b82601f10620001f357805160ff191683800117855562000224565b8280016001018555821562000224579182015b828111156200022357825182559160200191906001019062000206565b5b50905062000233919062000237565b5090565b5b808211156200025257600081600090555060010162000238565b5090565b600060028204905060018216806200026f57607f821691505b602082108114156200028657620002856200028c565b5b50919050565b7f4e487b7100000000000000000000000000000000000000000000000000000000600052602260045260246000fd5b61357080620002cb6000396000f3fe608060405234801561001057600080fd5b506004361061010b5760003560e01c8063715018a6116100a2578063a22cb46511610071578063a22cb465146102a4578063b88d4fde146102c0578063c87b56dd146102dc578063e985e9c51461030c578063f2fde38b1461033c5761010b565b8063715018a61461024257806382981d991461024c5780638da5cb5b1461026857806395d89b41146102865761010b565b806323b872dd116100de57806323b872dd146101aa57806342842e0e146101c65780636352211e146101e257806370a08231146102125761010b565b806301ffc9a71461011057806306fdde0314610140578063081812fc1461015e578063095ea7b31461018e575b600080fd5b61012a60048036038101906101259190612155565b610358565b604051610137919061280c565b60405180910390f35b61014861043a565b6040516101559190612827565b60405180910390f35b6101786004803603810190610173919061227c565b6104cc565b60405161018591906127a5565b60405180910390f35b6101a860048036038101906101a39190612119565b610551565b005b6101c460048036038101906101bf9190612013565b610669565b005b6101e060048036038101906101db9190612013565b6106c9565b005b6101fc60048036038101906101f7919061227c565b6106e9565b60405161020991906127a5565b60405180910390f35b61022c60048036038101906102279190611fae565b61079b565b6040516102399190612a89565b60405180910390f35b61024a610853565b005b610266600480360381019061026191906121a7565b6108db565b005b61027061095e565b60405161027d91906127a5565b60405180910390f35b61028e610988565b60405161029b9190612827565b60405180910390f35b6102be60048036038101906102b991906120dd565b610a1a565b005b6102da60048036038101906102d59190612062565b610a30565b005b6102f660048036038101906102f1919061227c565b610a92565b6040516103039190612827565b60405180910390f35b61032660048036038101906103219190611fd7565b610be4565b604051610333919061280c565b60405180910390f35b61035660048036038101906103519190611fae565b610c78565b005b60007f80ac58cd000000000000000000000000000000000000000000000000000000007bffffffffffffffffffffffffffffffffffffffffffffffffffffffff1916827bffffffffffffffffffffffffffffffffffffffffffffffffffffffff1916148061042357507f5b5e139f000000000000000000000000000000000000000000000000000000007bffffffffffffffffffffffffffffffffffffffffffffffffffffffff1916827bffffffffffffffffffffffffffffffffffffffffffffffffffffffff1916145b80610433575061043282610d70565b5b9050919050565b60606000805461044990612d08565b80601f016020809104026020016040519081016040528092919081815260200182805461047590612d08565b80156104c25780601f10610497576101008083540402835291602001916104c2565b820191906000526020600020905b8154815290600101906020018083116104a557829003601f168201915b5050505050905090565b60006104d782610dda565b610516576040517f08c379a000000000000000000000000000000000000000000000000000000000815260040161050d906129e9565b60405180910390fd5b6004600083815260200190815260200160002060009054906101000a900473ffffffffffffffffffffffffffffffffffffffff169050919050565b600061055c826106e9565b90508073ffffffffffffffffffffffffffffffffffffffff168373ffffffffffffffffffffffffffffffffffffffff1614156105cd576040517f08c379a00000000000000000000000000000000000000000000000000000000081526004016105c490612a49565b60405180910390fd5b8073ffffffffffffffffffffffffffffffffffffffff166105ec610e46565b73ffffffffffffffffffffffffffffffffffffffff16148061061b575061061a81610615610e46565b610be4565b5b61065a576040517f08c379a000000000000000000000000000000000000000000000000000000000815260040161065190612929565b60405180910390fd5b6106648383610e4e565b505050565b61067a610674610e46565b82610f07565b6106b9576040517f08c379a00000000000000000000000000000000000000000000000000000000081526004016106b090612a69565b60405180910390fd5b6106c4838383610fe5565b505050565b6106e483838360405180602001604052806000815250610a30565b505050565b6000806002600084815260200190815260200160002060009054906101000a900473ffffffffffffffffffffffffffffffffffffffff169050600073ffffffffffffffffffffffffffffffffffffffff168173ffffffffffffffffffffffffffffffffffffffff161415610792576040517f08c379a000000000000000000000000000000000000000000000000000000000815260040161078990612969565b60405180910390fd5b80915050919050565b60008073ffffffffffffffffffffffffffffffffffffffff168273ffffffffffffffffffffffffffffffffffffffff16141561080c576040517f08c379a000000000000000000000000000000000000000000000000000000000815260040161080390612949565b60405180910390fd5b600360008373ffffffffffffffffffffffffffffffffffffffff1673ffffffffffffffffffffffffffffffffffffffff168152602001908152602001600020549050919050565b61085b610e46565b73ffffffffffffffffffffffffffffffffffffffff1661087961095e565b73ffffffffffffffffffffffffffffffffffffffff16146108cf576040517f08c379a00000000000000000000000000000000000000000000000000000000081526004016108c690612a09565b60405180910390fd5b6108d9600061124c565b565b60006108e76008611312565b905060006108fb8a8a8a8a8a8a8a8a611320565b90506109073383611391565b61091182826113af565b61091b6008611423565b7f0c1c68d495dbf37492296d41ab5a6c91f02578c55989304168ddd18b0b04476c3360405161094a91906127a5565b60405180910390a150505050505050505050565b6000600760009054906101000a900473ffffffffffffffffffffffffffffffffffffffff16905090565b60606001805461099790612d08565b80601f01602080910402602001604051908101604052809291908181526020018280546109c390612d08565b8015610a105780601f106109e557610100808354040283529160200191610a10565b820191906000526020600020905b8154815290600101906020018083116109f357829003601f168201915b5050505050905090565b610a2c610a25610e46565b8383611439565b5050565b610a41610a3b610e46565b83610f07565b610a80576040517f08c379a0000000000000000000000000000000000000000000000000000000008152600401610a7790612a69565b60405180910390fd5b610a8c848484846115a6565b50505050565b6060610a9d82610dda565b610adc576040517f08c379a0000000000000000000000000000000000000000000000000000000008152600401610ad3906129c9565b60405180910390fd5b6000600660008481526020019081526020016000208054610afc90612d08565b80601f0160208091040260200160405190810160405280929190818152602001828054610b2890612d08565b8015610b755780601f10610b4a57610100808354040283529160200191610b75565b820191906000526020600020905b815481529060010190602001808311610b5857829003601f168201915b505050505090506000610b86611602565b9050600081511415610b9c578192505050610bdf565b600082511115610bd1578082604051602001610bb99291906126e2565b60405160208183030381529060405292505050610bdf565b610bda84611619565b925050505b919050565b6000600560008473ffffffffffffffffffffffffffffffffffffffff1673ffffffffffffffffffffffffffffffffffffffff16815260200190815260200160002060008373ffffffffffffffffffffffffffffffffffffffff1673ffffffffffffffffffffffffffffffffffffffff16815260200190815260200160002060009054906101000a900460ff16905092915050565b610c80610e46565b73ffffffffffffffffffffffffffffffffffffffff16610c9e61095e565b73ffffffffffffffffffffffffffffffffffffffff1614610cf4576040517f08c379a0000000000000000000000000000000000000000000000000000000008152600401610ceb90612a09565b60405180910390fd5b600073ffffffffffffffffffffffffffffffffffffffff168173ffffffffffffffffffffffffffffffffffffffff161415610d64576040517f08c379a0000000000000000000000000000000000000000000000000000000008152600401610d5b90612869565b60405180910390fd5b610d6d8161124c565b50565b60007f01ffc9a7000000000000000000000000000000000000000000000000000000007bffffffffffffffffffffffffffffffffffffffffffffffffffffffff1916827bffffffffffffffffffffffffffffffffffffffffffffffffffffffff1916149050919050565b60008073ffffffffffffffffffffffffffffffffffffffff166002600084815260200190815260200160002060009054906101000a900473ffffffffffffffffffffffffffffffffffffffff1673ffffffffffffffffffffffffffffffffffffffff1614159050919050565b600033905090565b816004600083815260200190815260200160002060006101000a81548173ffffffffffffffffffffffffffffffffffffffff021916908373ffffffffffffffffffffffffffffffffffffffff160217905550808273ffffffffffffffffffffffffffffffffffffffff16610ec1836106e9565b73ffffffffffffffffffffffffffffffffffffffff167f8c5be1e5ebec7d5bd14f71427d1e84f3dd0314c0f7b2291e5b200ac8c7c3b92560405160405180910390a45050565b6000610f1282610dda565b610f51576040517f08c379a0000000000000000000000000000000000000000000000000000000008152600401610f4890612909565b60405180910390fd5b6000610f5c836106e9565b90508073ffffffffffffffffffffffffffffffffffffffff168473ffffffffffffffffffffffffffffffffffffffff161480610f9e5750610f9d8185610be4565b5b80610fdc57508373ffffffffffffffffffffffffffffffffffffffff16610fc4846104cc565b73ffffffffffffffffffffffffffffffffffffffff16145b91505092915050565b8273ffffffffffffffffffffffffffffffffffffffff16611005826106e9565b73ffffffffffffffffffffffffffffffffffffffff161461105b576040517f08c379a000000000000000000000000000000000000000000000000000000000815260040161105290612889565b60405180910390fd5b600073ffffffffffffffffffffffffffffffffffffffff168273ffffffffffffffffffffffffffffffffffffffff1614156110cb576040517f08c379a00000000000000000000000000000000000000000000000000000000081526004016110c2906128c9565b60405180910390fd5b6110d68383836116c0565b6110e1600082610e4e565b6001600360008573ffffffffffffffffffffffffffffffffffffffff1673ffffffffffffffffffffffffffffffffffffffff16815260200190815260200160002060008282546111319190612c1e565b925050819055506001600360008473ffffffffffffffffffffffffffffffffffffffff1673ffffffffffffffffffffffffffffffffffffffff16815260200190815260200160002060008282546111889190612b3d565b92505081905550816002600083815260200190815260200160002060006101000a81548173ffffffffffffffffffffffffffffffffffffffff021916908373ffffffffffffffffffffffffffffffffffffffff160217905550808273ffffffffffffffffffffffffffffffffffffffff168473ffffffffffffffffffffffffffffffffffffffff167fddf252ad1be2c89b69c2b068fc378daa952ba7f163c4a11628f55a4df523b3ef60405160405180910390a46112478383836116c5565b505050565b6000600760009054906101000a900473ffffffffffffffffffffffffffffffffffffffff16905081600760006101000a81548173ffffffffffffffffffffffffffffffffffffffff021916908373ffffffffffffffffffffffffffffffffffffffff1602179055508173ffffffffffffffffffffffffffffffffffffffff168173ffffffffffffffffffffffffffffffffffffffff167f8be0079c531659141344cd1fd0a4f28419497f9722a3daafe3b4186f6b6457e060405160405180910390a35050565b600081600001549050919050565b6060600061135a8a8a8a8a8a8a8a8a604051602001611346989796959493929190612706565b6040516020818303038152906040526116ca565b905060008160405160200161136f9190612783565b6040516020818303038152906040529050809250505098975050505050505050565b6113ab828260405180602001604052806000815250611854565b5050565b6113b882610dda565b6113f7576040517f08c379a00000000000000000000000000000000000000000000000000000000081526004016113ee90612989565b60405180910390fd5b8060066000848152602001908152602001600020908051906020019061141e929190611df0565b505050565b6001816000016000828254019250508190555050565b8173ffffffffffffffffffffffffffffffffffffffff168373ffffffffffffffffffffffffffffffffffffffff1614156114a8576040517f08c379a000000000000000000000000000000000000000000000000000000000815260040161149f906128e9565b60405180910390fd5b80600560008573ffffffffffffffffffffffffffffffffffffffff1673ffffffffffffffffffffffffffffffffffffffff16815260200190815260200160002060008473ffffffffffffffffffffffffffffffffffffffff1673ffffffffffffffffffffffffffffffffffffffff16815260200190815260200160002060006101000a81548160ff0219169083151502179055508173ffffffffffffffffffffffffffffffffffffffff168373ffffffffffffffffffffffffffffffffffffffff167f17307eab39ab6107e8899845ad3d59bd9653f200f220920489ca2b5937696c3183604051611599919061280c565b60405180910390a3505050565b6115b1848484610fe5565b6115bd848484846118af565b6115fc576040517f08c379a00000000000000000000000000000000000000000000000000000000081526004016115f390612849565b60405180910390fd5b50505050565b606060405180602001604052806000815250905090565b606061162482610dda565b611663576040517f08c379a000000000000000000000000000000000000000000000000000000000815260040161165a90612a29565b60405180910390fd5b600061166d611602565b9050600081511161168d57604051806020016040528060008152506116b8565b8061169784611a46565b6040516020016116a89291906126e2565b6040516020818303038152906040525b915050919050565b505050565b505050565b60606000825114156116ed5760405180602001604052806000815250905061184f565b60006040518060600160405280604081526020016134fb604091399050600060036002855161171c9190612b3d565b6117269190612b93565b60046117329190612bc4565b67ffffffffffffffff811115611771577f4e487b7100000000000000000000000000000000000000000000000000000000600052604160045260246000fd5b6040519080825280601f01601f1916602001820160405280156117a35781602001600182028036833780820191505090505b509050600182016020820185865187015b8082101561180f576003820191508151603f8160121c168501518453600184019350603f81600c1c168501518453600184019350603f8160061c168501518453600184019350603f81168501518453600184019350506117b4565b505060038651066001811461182b576002811461183e57611846565b603d6001830353603d6002830353611846565b603d60018303535b50505080925050505b919050565b61185e8383611bf3565b61186b60008484846118af565b6118aa576040517f08c379a00000000000000000000000000000000000000000000000000000000081526004016118a190612849565b60405180910390fd5b505050565b60006118d08473ffffffffffffffffffffffffffffffffffffffff16611dcd565b15611a39578373ffffffffffffffffffffffffffffffffffffffff1663150b7a026118f9610e46565b8786866040518563ffffffff1660e01b815260040161191b94939291906127c0565b602060405180830381600087803b15801561193557600080fd5b505af192505050801561196657506040513d601f19601f82011682018060405250810190611963919061217e565b60015b6119e9573d8060008114611996576040519150601f19603f3d011682016040523d82523d6000602084013e61199b565b606091505b506000815114156119e1576040517f08c379a00000000000000000000000000000000000000000000000000000000081526004016119d890612849565b60405180910390fd5b805181602001fd5b63150b7a0260e01b7bffffffffffffffffffffffffffffffffffffffffffffffffffffffff1916817bffffffffffffffffffffffffffffffffffffffffffffffffffffffff191614915050611a3e565b600190505b949350505050565b60606000821415611a8e576040518060400160405280600181526020017f30000000000000000000000000000000000000000000000000000000000000008152509050611bee565b600082905060005b60008214611ac0578080611aa990612d6b565b915050600a82611ab99190612b93565b9150611a96565b60008167ffffffffffffffff811115611b02577f4e487b7100000000000000000000000000000000000000000000000000000000600052604160045260246000fd5b6040519080825280601f01601f191660200182016040528015611b345781602001600182028036833780820191505090505b5090505b60008514611be757600182611b4d9190612c1e565b9150600a85611b5c9190612db4565b6030611b689190612b3d565b60f81b818381518110611ba4577f4e487b7100000000000000000000000000000000000000000000000000000000600052603260045260246000fd5b60200101907effffffffffffffffffffffffffffffffffffffffffffffffffffffffffffff1916908160001a905350600a85611be09190612b93565b9450611b38565b8093505050505b919050565b600073ffffffffffffffffffffffffffffffffffffffff168273ffffffffffffffffffffffffffffffffffffffff161415611c63576040517f08c379a0000000000000000000000000000000000000000000000000000000008152600401611c5a906129a9565b60405180910390fd5b611c6c81610dda565b15611cac576040517f08c379a0000000000000000000000000000000000000000000000000000000008152600401611ca3906128a9565b60405180910390fd5b611cb8600083836116c0565b6001600360008473ffffffffffffffffffffffffffffffffffffffff1673ffffffffffffffffffffffffffffffffffffffff1681526020019081526020016000206000828254611d089190612b3d565b92505081905550816002600083815260200190815260200160002060006101000a81548173ffffffffffffffffffffffffffffffffffffffff021916908373ffffffffffffffffffffffffffffffffffffffff160217905550808273ffffffffffffffffffffffffffffffffffffffff16600073ffffffffffffffffffffffffffffffffffffffff167fddf252ad1be2c89b69c2b068fc378daa952ba7f163c4a11628f55a4df523b3ef60405160405180910390a4611dc9600083836116c5565b5050565b6000808273ffffffffffffffffffffffffffffffffffffffff163b119050919050565b828054611dfc90612d08565b90600052602060002090601f016020900481019282611e1e5760008555611e65565b82601f10611e3757805160ff1916838001178555611e65565b82800160010185558215611e65579182015b82811115611e64578251825591602001919060010190611e49565b5b509050611e729190611e76565b5090565b5b80821115611e8f576000816000905550600101611e77565b5090565b6000611ea6611ea184612ac9565b612aa4565b905082815260208101848484011115611ebe57600080fd5b611ec9848285612cc6565b509392505050565b600081359050611ee08161349e565b92915050565b600081359050611ef5816134b5565b92915050565b600081359050611f0a816134cc565b92915050565b600081519050611f1f816134cc565b92915050565b600082601f830112611f3657600080fd5b8135611f46848260208601611e93565b91505092915050565b60008083601f840112611f6157600080fd5b8235905067ffffffffffffffff811115611f7a57600080fd5b602083019150836001820283011115611f9257600080fd5b9250929050565b600081359050611fa8816134e3565b92915050565b600060208284031215611fc057600080fd5b6000611fce84828501611ed1565b91505092915050565b60008060408385031215611fea57600080fd5b6000611ff885828601611ed1565b925050602061200985828601611ed1565b9150509250929050565b60008060006060848603121561202857600080fd5b600061203686828701611ed1565b935050602061204786828701611ed1565b925050604061205886828701611f99565b9150509250925092565b6000806000806080858703121561207857600080fd5b600061208687828801611ed1565b945050602061209787828801611ed1565b93505060406120a887828801611f99565b925050606085013567ffffffffffffffff8111156120c557600080fd5b6120d187828801611f25565b91505092959194509250565b600080604083850312156120f057600080fd5b60006120fe85828601611ed1565b925050602061210f85828601611ee6565b9150509250929050565b6000806040838503121561212c57600080fd5b600061213a85828601611ed1565b925050602061214b85828601611f99565b9150509250929050565b60006020828403121561216757600080fd5b600061217584828501611efb565b91505092915050565b60006020828403121561219057600080fd5b600061219e84828501611f10565b91505092915050565b6000806000806000806000806080898b0312156121c357600080fd5b600089013567ffffffffffffffff8111156121dd57600080fd5b6121e98b828c01611f4f565b9850985050602089013567ffffffffffffffff81111561220857600080fd5b6122148b828c01611f4f565b9650965050604089013567ffffffffffffffff81111561223357600080fd5b61223f8b828c01611f4f565b9450945050606089013567ffffffffffffffff81111561225e57600080fd5b61226a8b828c01611f4f565b92509250509295985092959890939650565b60006020828403121561228e57600080fd5b600061229c84828501611f99565b91505092915050565b6122ae81612c52565b82525050565b6122bd81612c64565b82525050565b60006122ce82612afa565b6122d88185612b10565b93506122e8818560208601612cd5565b6122f181612ea1565b840191505092915050565b60006123088385612b32565b9350612315838584612cc6565b82840190509392505050565b600061232c82612b05565b6123368185612b21565b9350612346818560208601612cd5565b61234f81612ea1565b840191505092915050565b600061236582612b05565b61236f8185612b32565b935061237f818560208601612cd5565b80840191505092915050565b6000612398601383612b32565b91506123a382612eb2565b601382019050919050565b60006123bb603283612b21565b91506123c682612edb565b604082019050919050565b60006123de602683612b21565b91506123e982612f2a565b604082019050919050565b6000612401602583612b21565b915061240c82612f79565b604082019050919050565b6000612424600b83612b32565b915061242f82612fc8565b600b82019050919050565b6000612447601c83612b21565b915061245282612ff1565b602082019050919050565b600061246a602483612b21565b91506124758261301a565b604082019050919050565b600061248d601983612b21565b915061249882613069565b602082019050919050565b60006124b0602c83612b21565b91506124bb82613092565b604082019050919050565b60006124d3600a83612b32565b91506124de826130e1565b600a82019050919050565b60006124f6603883612b21565b91506125018261310a565b604082019050919050565b6000612519602a83612b21565b915061252482613159565b604082019050919050565b600061253c602983612b21565b9150612547826131a8565b604082019050919050565b600061255f602e83612b21565b915061256a826131f7565b604082019050919050565b6000612582600283612b32565b915061258d82613246565b600282019050919050565b60006125a5602083612b21565b91506125b08261326f565b602082019050919050565b60006125c8603183612b21565b91506125d382613298565b604082019050919050565b60006125eb602c83612b21565b91506125f6826132e7565b604082019050919050565b600061260e602083612b21565b915061261982613336565b602082019050919050565b6000612631602f83612b21565b915061263c8261335f565b604082019050919050565b6000612654602183612b21565b915061265f826133ae565b604082019050919050565b6000612677601d83612b32565b9150612682826133fd565b601d82019050919050565b600061269a603183612b21565b91506126a582613426565b604082019050919050565b60006126bd601283612b32565b91506126c882613475565b601282019050919050565b6126dc81612cbc565b82525050565b60006126ee828561235a565b91506126fa828461235a565b91508190509392505050565b600061271182612417565b915061271e828a8c6122fc565b91506127298261238b565b915061273682888a6122fc565b9150612741826124c6565b915061274e8286886122fc565b9150612759826126b0565b91506127668284866122fc565b915061277182612575565b91508190509998505050505050505050565b600061278e8261266a565b915061279a828461235a565b915081905092915050565b60006020820190506127ba60008301846122a5565b92915050565b60006080820190506127d560008301876122a5565b6127e260208301866122a5565b6127ef60408301856126d3565b818103606083015261280181846122c3565b905095945050505050565b600060208201905061282160008301846122b4565b92915050565b600060208201905081810360008301526128418184612321565b905092915050565b60006020820190508181036000830152612862816123ae565b9050919050565b60006020820190508181036000830152612882816123d1565b9050919050565b600060208201905081810360008301526128a2816123f4565b9050919050565b600060208201905081810360008301526128c28161243a565b9050919050565b600060208201905081810360008301526128e28161245d565b9050919050565b6000602082019050818103600083015261290281612480565b9050919050565b60006020820190508181036000830152612922816124a3565b9050919050565b60006020820190508181036000830152612942816124e9565b9050919050565b600060208201905081810360008301526129628161250c565b9050919050565b600060208201905081810360008301526129828161252f565b9050919050565b600060208201905081810360008301526129a281612552565b9050919050565b600060208201905081810360008301526129c281612598565b9050919050565b600060208201905081810360008301526129e2816125bb565b9050919050565b60006020820190508181036000830152612a02816125de565b9050919050565b60006020820190508181036000830152612a2281612601565b9050919050565b60006020820190508181036000830152612a4281612624565b9050919050565b60006020820190508181036000830152612a6281612647565b9050919050565b60006020820190508181036000830152612a828161268d565b9050919050565b6000602082019050612a9e60008301846126d3565b92915050565b6000612aae612abf565b9050612aba8282612d3a565b919050565b6000604051905090565b600067ffffffffffffffff821115612ae457612ae3612e72565b5b612aed82612ea1565b9050602081019050919050565b600081519050919050565b600081519050919050565b600082825260208201905092915050565b600082825260208201905092915050565b600081905092915050565b6000612b4882612cbc565b9150612b5383612cbc565b9250827fffffffffffffffffffffffffffffffffffffffffffffffffffffffffffffffff03821115612b8857612b87612de5565b5b828201905092915050565b6000612b9e82612cbc565b9150612ba983612cbc565b925082612bb957612bb8612e14565b5b828204905092915050565b6000612bcf82612cbc565b9150612bda83612cbc565b9250817fffffffffffffffffffffffffffffffffffffffffffffffffffffffffffffffff0483118215151615612c1357612c12612de5565b5b828202905092915050565b6000612c2982612cbc565b9150612c3483612cbc565b925082821015612c4757612c46612de5565b5b828203905092915050565b6000612c5d82612c9c565b9050919050565b60008115159050919050565b60007fffffffff0000000000000000000000000000000000000000000000000000000082169050919050565b600073ffffffffffffffffffffffffffffffffffffffff82169050919050565b6000819050919050565b82818337600083830152505050565b60005b83811015612cf3578082015181840152602081019050612cd8565b83811115612d02576000848401525b50505050565b60006002820490506001821680612d2057607f821691505b60208210811415612d3457612d33612e43565b5b50919050565b612d4382612ea1565b810181811067ffffffffffffffff82111715612d6257612d61612e72565b5b80604052505050565b6000612d7682612cbc565b91507fffffffffffffffffffffffffffffffffffffffffffffffffffffffffffffffff821415612da957612da8612de5565b5b600182019050919050565b6000612dbf82612cbc565b9150612dca83612cbc565b925082612dda57612dd9612e14565b5b828206905092915050565b7f4e487b7100000000000000000000000000000000000000000000000000000000600052601160045260246000fd5b7f4e487b7100000000000000000000000000000000000000000000000000000000600052601260045260246000fd5b7f4e487b7100000000000000000000000000000000000000000000000000000000600052602260045260246000fd5b7f4e487b7100000000000000000000000000000000000000000000000000000000600052604160045260246000fd5b6000601f19601f8301169050919050565b7f222c20226465736372697074696f6e223a202200000000000000000000000000600082015250565b7f4552433732313a207472616e7366657220746f206e6f6e20455243373231526560008201527f63656976657220696d706c656d656e7465720000000000000000000000000000602082015250565b7f4f776e61626c653a206e6577206f776e657220697320746865207a65726f206160008201527f6464726573730000000000000000000000000000000000000000000000000000602082015250565b7f4552433732313a207472616e736665722066726f6d20696e636f72726563742060008201527f6f776e6572000000000000000000000000000000000000000000000000000000602082015250565b7f7b20226e616d65223a2022000000000000000000000000000000000000000000600082015250565b7f4552433732313a20746f6b656e20616c7265616479206d696e74656400000000600082015250565b7f4552433732313a207472616e7366657220746f20746865207a65726f2061646460008201527f7265737300000000000000000000000000000000000000000000000000000000602082015250565b7f4552433732313a20617070726f766520746f2063616c6c657200000000000000600082015250565b7f4552433732313a206f70657261746f7220717565727920666f72206e6f6e657860008201527f697374656e7420746f6b656e0000000000000000000000000000000000000000602082015250565b7f222c2275726c223a202200000000000000000000000000000000000000000000600082015250565b7f4552433732313a20617070726f76652063616c6c6572206973206e6f74206f7760008201527f6e6572206e6f7220617070726f76656420666f7220616c6c0000000000000000602082015250565b7f4552433732313a2062616c616e636520717565727920666f7220746865207a6560008201527f726f206164647265737300000000000000000000000000000000000000000000602082015250565b7f4552433732313a206f776e657220717565727920666f72206e6f6e657869737460008201527f656e7420746f6b656e0000000000000000000000000000000000000000000000602082015250565b7f45524337323155524953746f726167653a2055524920736574206f66206e6f6e60008201527f6578697374656e7420746f6b656e000000000000000000000000000000000000602082015250565b7f227d000000000000000000000000000000000000000000000000000000000000600082015250565b7f4552433732313a206d696e7420746f20746865207a65726f2061646472657373600082015250565b7f45524337323155524953746f726167653a2055524920717565727920666f722060008201527f6e6f6e6578697374656e7420746f6b656e000000000000000000000000000000602082015250565b7f4552433732313a20617070726f76656420717565727920666f72206e6f6e657860008201527f697374656e7420746f6b656e0000000000000000000000000000000000000000602082015250565b7f4f776e61626c653a2063616c6c6572206973206e6f7420746865206f776e6572600082015250565b7f4552433732314d657461646174613a2055524920717565727920666f72206e6f60008201527f6e6578697374656e7420746f6b656e0000000000000000000000000000000000602082015250565b7f4552433732313a20617070726f76616c20746f2063757272656e74206f776e6560008201527f7200000000000000000000000000000000000000000000000000000000000000602082015250565b7f646174613a6170706c69636174696f6e2f6a736f6e3b6261736536342c000000600082015250565b7f4552433732313a207472616e736665722063616c6c6572206973206e6f74206f60008201527f776e6572206e6f7220617070726f766564000000000000000000000000000000602082015250565b7f222c226f626a6563745f74797065223a20220000000000000000000000000000600082015250565b6134a781612c52565b81146134b257600080fd5b50565b6134be81612c64565b81146134c957600080fd5b50565b6134d581612c70565b81146134e057600080fd5b50565b6134ec81612cbc565b81146134f757600080fd5b5056fe4142434445464748494a4b4c4d4e4f505152535455565758595a6162636465666768696a6b6c6d6e6f707172737475767778797a303132333435363738392b2fa2646970667358221220cfa30159e7ba35de7ef81c7296c40a6e9acc6511531fe33922d33265073f858e64736f6c63430008040033",
  "linkReferences": {},
  "deployedLinkReferences": {}
}