{
  "_format": "hh-sol-artifact-1",
  "contractName": "BBGameObject",
  "sourceName": "contracts/BBGameObject.sol",
  "abi": [
    {
      "inputs": [],
      "stateMutability": "nonpayable",
      "type": "constructor"
    },
    {
      "anonymous": false,
      "inputs": [
        {
          "indexed": true,
          "internalType": "address",
          "name": "owner",
          "type": "address"
        },
        {
          "indexed": true,
          "internalType": "address",
          "name": "approved",
          "type": "address"
        },
        {
          "indexed": true,
          "internalType": "uint256",
          "name": "tokenId",
          "type": "uint256"
        }
      ],
      "name": "Approval",
      "type": "event"
    },
    {
      "anonymous": false,
      "inputs": [
        {
          "indexed": true,
          "internalType": "address",
          "name": "owner",
          "type": "address"
        },
        {
          "indexed": true,
          "internalType": "address",
          "name": "operator",
          "type": "address"
        },
        {
          "indexed": false,
          "internalType": "bool",
          "name": "approved",
          "type": "bool"
        }
      ],
      "name": "ApprovalForAll",
      "type": "event"
    },
    {
      "anonymous": false,
      "inputs": [
        {
          "indexed": false,
          "internalType": "address",
          "name": "",
          "type": "address"
        }
      ],
      "name": "MintedObject",
      "type": "event"
    },
    {
      "anonymous": false,
      "inputs": [
        {
          "indexed": true,
          "internalType": "address",
          "name": "previousOwner",
          "type": "address"
        },
        {
          "indexed": true,
          "internalType": "address",
          "name": "newOwner",
          "type": "address"
        }
      ],
      "name": "OwnershipTransferred",
      "type": "event"
    },
    {
      "anonymous": false,
      "inputs": [
        {
          "indexed": true,
          "internalType": "address",
          "name": "from",
          "type": "address"
        },
        {
          "indexed": true,
          "internalType": "address",
          "name": "to",
          "type": "address"
        },
        {
          "indexed": true,
          "internalType": "uint256",
          "name": "tokenId",
          "type": "uint256"
        }
      ],
      "name": "Transfer",
      "type": "event"
    },
    {
      "anonymous": false,
      "inputs": [
        {
          "indexed": false,
          "internalType": "address",
          "name": "",
          "type": "address"
        }
      ],
      "name": "UpdatedObject",
      "type": "event"
    },
    {
      "inputs": [
        {
          "internalType": "address",
          "name": "to",
          "type": "address"
        },
        {
          "internalType": "uint256",
          "name": "tokenId",
          "type": "uint256"
        }
      ],
      "name": "approve",
      "outputs": [],
      "stateMutability": "nonpayable",
      "type": "function"
    },
    {
      "inputs": [
        {
          "internalType": "address",
          "name": "owner",
          "type": "address"
        }
      ],
      "name": "balanceOf",
      "outputs": [
        {
          "internalType": "uint256",
          "name": "",
          "type": "uint256"
        }
      ],
      "stateMutability": "view",
      "type": "function"
    },
    {
      "inputs": [
        {
          "internalType": "uint256",
          "name": "tokenId",
          "type": "uint256"
        }
      ],
      "name": "getApproved",
      "outputs": [
        {
          "internalType": "address",
          "name": "",
          "type": "address"
        }
      ],
      "stateMutability": "view",
      "type": "function"
    },
    {
      "inputs": [
        {
          "internalType": "address",
          "name": "owner",
          "type": "address"
        },
        {
          "internalType": "address",
          "name": "operator",
          "type": "address"
        }
      ],
      "name": "isApprovedForAll",
      "outputs": [
        {
          "internalType": "bool",
          "name": "",
          "type": "bool"
        }
      ],
      "stateMutability": "view",
      "type": "function"
    },
    {
      "inputs": [
        {
          "internalType": "string",
          "name": "name",
          "type": "string"
        },
        {
          "internalType": "string",
          "name": "desc",
          "type": "string"
        },
        {
          "internalType": "string",
          "name": "url",
          "type": "string"
        },
        {
          "internalType": "string",
          "name": "acessoryName",
          "type": "string"
        },
        {
          "internalType": "string",
          "name": "acessoryUrl",
          "type": "string"
        }
      ],
      "name": "mintGameObject",
      "outputs": [],
      "stateMutability": "nonpayable",
      "type": "function"
    },
    {
      "inputs": [],
      "name": "name",
      "outputs": [
        {
          "internalType": "string",
          "name": "",
          "type": "string"
        }
      ],
      "stateMutability": "view",
      "type": "function"
    },
    {
      "inputs": [],
      "name": "owner",
      "outputs": [
        {
          "internalType": "address",
          "name": "",
          "type": "address"
        }
      ],
      "stateMutability": "view",
      "type": "function"
    },
    {
      "inputs": [
        {
          "internalType": "uint256",
          "name": "tokenId",
          "type": "uint256"
        }
      ],
      "name": "ownerOf",
      "outputs": [
        {
          "internalType": "address",
          "name": "",
          "type": "address"
        }
      ],
      "stateMutability": "view",
      "type": "function"
    },
    {
      "inputs": [],
      "name": "renounceOwnership",
      "outputs": [],
      "stateMutability": "nonpayable",
      "type": "function"
    },
    {
      "inputs": [
        {
          "internalType": "address",
          "name": "from",
          "type": "address"
        },
        {
          "internalType": "address",
          "name": "to",
          "type": "address"
        },
        {
          "internalType": "uint256",
          "name": "tokenId",
          "type": "uint256"
        }
      ],
      "name": "safeTransferFrom",
      "outputs": [],
      "stateMutability": "nonpayable",
      "type": "function"
    },
    {
      "inputs": [
        {
          "internalType": "address",
          "name": "from",
          "type": "address"
        },
        {
          "internalType": "address",
          "name": "to",
          "type": "address"
        },
        {
          "internalType": "uint256",
          "name": "tokenId",
          "type": "uint256"
        },
        {
          "internalType": "bytes",
          "name": "_data",
          "type": "bytes"
        }
      ],
      "name": "safeTransferFrom",
      "outputs": [],
      "stateMutability": "nonpayable",
      "type": "function"
    },
    {
      "inputs": [
        {
          "internalType": "address",
          "name": "operator",
          "type": "address"
        },
        {
          "internalType": "bool",
          "name": "approved",
          "type": "bool"
        }
      ],
      "name": "setApprovalForAll",
      "outputs": [],
      "stateMutability": "nonpayable",
      "type": "function"
    },
    {
      "inputs": [
        {
          "internalType": "bytes4",
          "name": "interfaceId",
          "type": "bytes4"
        }
      ],
      "name": "supportsInterface",
      "outputs": [
        {
          "internalType": "bool",
          "name": "",
          "type": "bool"
        }
      ],
      "stateMutability": "view",
      "type": "function"
    },
    {
      "inputs": [],
      "name": "symbol",
      "outputs": [
        {
          "internalType": "string",
          "name": "",
          "type": "string"
        }
      ],
      "stateMutability": "view",
      "type": "function"
    },
    {
      "inputs": [
        {
          "internalType": "uint256",
          "name": "tokenId",
          "type": "uint256"
        }
      ],
      "name": "tokenURI",
      "outputs": [
        {
          "internalType": "string",
          "name": "",
          "type": "string"
        }
      ],
      "stateMutability": "view",
      "type": "function"
    },
    {
      "inputs": [
        {
          "internalType": "address",
          "name": "from",
          "type": "address"
        },
        {
          "internalType": "address",
          "name": "to",
          "type": "address"
        },
        {
          "internalType": "uint256",
          "name": "tokenId",
          "type": "uint256"
        }
      ],
      "name": "transferFrom",
      "outputs": [],
      "stateMutability": "nonpayable",
      "type": "function"
    },
    {
      "inputs": [
        {
          "internalType": "address",
          "name": "newOwner",
          "type": "address"
        }
      ],
      "name": "transferOwnership",
      "outputs": [],
      "stateMutability": "nonpayable",
      "type": "function"
    }
  ],
  "bytecode": "0x60806040523480156200001157600080fd5b506040518060400160405280601981526020017f426174746c65204172656e612047616d65204f626a65637473000000000000008152506040518060400160405280600481526020017f4242474f00000000000000000000000000000000000000000000000000000000815250816000908051906020019062000096929190620001a6565b508060019080519060200190620000af929190620001a6565b505050620000d2620000c6620000d860201b60201c565b620000e060201b60201c565b620002bb565b600033905090565b6000600760009054906101000a900473ffffffffffffffffffffffffffffffffffffffff16905081600760006101000a81548173ffffffffffffffffffffffffffffffffffffffff021916908373ffffffffffffffffffffffffffffffffffffffff1602179055508173ffffffffffffffffffffffffffffffffffffffff168173ffffffffffffffffffffffffffffffffffffffff167f8be0079c531659141344cd1fd0a4f28419497f9722a3daafe3b4186f6b6457e060405160405180910390a35050565b828054620001b49062000256565b90600052602060002090601f016020900481019282620001d8576000855562000224565b82601f10620001f357805160ff191683800117855562000224565b8280016001018555821562000224579182015b828111156200022357825182559160200191906001019062000206565b5b50905062000233919062000237565b5090565b5b808211156200025257600081600090555060010162000238565b5090565b600060028204905060018216806200026f57607f821691505b602082108114156200028657620002856200028c565b5b50919050565b7f4e487b7100000000000000000000000000000000000000000000000000000000600052602260045260246000fd5b61361080620002cb6000396000f3fe608060405234801561001057600080fd5b506004361061010b5760003560e01c806370a08231116100a2578063a22cb46511610071578063a22cb465146102a4578063b88d4fde146102c0578063c87b56dd146102dc578063e985e9c51461030c578063f2fde38b1461033c5761010b565b806370a082311461022e578063715018a61461025e5780638da5cb5b1461026857806395d89b41146102865761010b565b806323b872dd116100de57806323b872dd146101aa5780633585bf8b146101c657806342842e0e146101e25780636352211e146101fe5761010b565b806301ffc9a71461011057806306fdde0314610140578063081812fc1461015e578063095ea7b31461018e575b600080fd5b61012a6004803603810190610125919061215f565b610358565b6040516101379190612883565b60405180910390f35b61014861043a565b604051610155919061289e565b60405180910390f35b610178600480360381019061017391906122b6565b6104cc565b604051610185919061281c565b60405180910390f35b6101a860048036038101906101a39190612123565b610551565b005b6101c460048036038101906101bf919061201d565b610669565b005b6101e060048036038101906101db91906121b1565b6106c9565b005b6101fc60048036038101906101f7919061201d565b610750565b005b610218600480360381019061021391906122b6565b610770565b604051610225919061281c565b60405180910390f35b61024860048036038101906102439190611fb8565b610822565b6040516102559190612b00565b60405180910390f35b6102666108da565b005b610270610962565b60405161027d919061281c565b60405180910390f35b61028e61098c565b60405161029b919061289e565b60405180910390f35b6102be60048036038101906102b991906120e7565b610a1e565b005b6102da60048036038101906102d5919061206c565b610a34565b005b6102f660048036038101906102f191906122b6565b610a96565b604051610303919061289e565b60405180910390f35b61032660048036038101906103219190611fe1565b610be8565b6040516103339190612883565b60405180910390f35b61035660048036038101906103519190611fb8565b610c7c565b005b60007f80ac58cd000000000000000000000000000000000000000000000000000000007bffffffffffffffffffffffffffffffffffffffffffffffffffffffff1916827bffffffffffffffffffffffffffffffffffffffffffffffffffffffff1916148061042357507f5b5e139f000000000000000000000000000000000000000000000000000000007bffffffffffffffffffffffffffffffffffffffffffffffffffffffff1916827bffffffffffffffffffffffffffffffffffffffffffffffffffffffff1916145b80610433575061043282610d74565b5b9050919050565b60606000805461044990612d7f565b80601f016020809104026020016040519081016040528092919081815260200182805461047590612d7f565b80156104c25780601f10610497576101008083540402835291602001916104c2565b820191906000526020600020905b8154815290600101906020018083116104a557829003601f168201915b5050505050905090565b60006104d782610dde565b610516576040517f08c379a000000000000000000000000000000000000000000000000000000000815260040161050d90612a60565b60405180910390fd5b6004600083815260200190815260200160002060009054906101000a900473ffffffffffffffffffffffffffffffffffffffff169050919050565b600061055c82610770565b90508073ffffffffffffffffffffffffffffffffffffffff168373ffffffffffffffffffffffffffffffffffffffff1614156105cd576040517f08c379a00000000000000000000000000000000000000000000000000000000081526004016105c490612ac0565b60405180910390fd5b8073ffffffffffffffffffffffffffffffffffffffff166105ec610e4a565b73ffffffffffffffffffffffffffffffffffffffff16148061061b575061061a81610615610e4a565b610be8565b5b61065a576040517f08c379a0000000000000000000000000000000000000000000000000000000008152600401610651906129a0565b60405180910390fd5b6106648383610e52565b505050565b61067a610674610e4a565b82610f0b565b6106b9576040517f08c379a00000000000000000000000000000000000000000000000000000000081526004016106b090612ae0565b60405180910390fd5b6106c4838383610fe9565b505050565b60006106d56008611250565b905060006106eb8c8c8c8c8c8c8c8c8c8c61125e565b90506106f733836112d5565b61070182826112f3565b61070b6008611367565b7f0c1c68d495dbf37492296d41ab5a6c91f02578c55989304168ddd18b0b04476c3360405161073a919061281c565b60405180910390a1505050505050505050505050565b61076b83838360405180602001604052806000815250610a34565b505050565b6000806002600084815260200190815260200160002060009054906101000a900473ffffffffffffffffffffffffffffffffffffffff169050600073ffffffffffffffffffffffffffffffffffffffff168173ffffffffffffffffffffffffffffffffffffffff161415610819576040517f08c379a0000000000000000000000000000000000000000000000000000000008152600401610810906129e0565b60405180910390fd5b80915050919050565b60008073ffffffffffffffffffffffffffffffffffffffff168273ffffffffffffffffffffffffffffffffffffffff161415610893576040517f08c379a000000000000000000000000000000000000000000000000000000000815260040161088a906129c0565b60405180910390fd5b600360008373ffffffffffffffffffffffffffffffffffffffff1673ffffffffffffffffffffffffffffffffffffffff168152602001908152602001600020549050919050565b6108e2610e4a565b73ffffffffffffffffffffffffffffffffffffffff16610900610962565b73ffffffffffffffffffffffffffffffffffffffff1614610956576040517f08c379a000000000000000000000000000000000000000000000000000000000815260040161094d90612a80565b60405180910390fd5b610960600061137d565b565b6000600760009054906101000a900473ffffffffffffffffffffffffffffffffffffffff16905090565b60606001805461099b90612d7f565b80601f01602080910402602001604051908101604052809291908181526020018280546109c790612d7f565b8015610a145780601f106109e957610100808354040283529160200191610a14565b820191906000526020600020905b8154815290600101906020018083116109f757829003601f168201915b5050505050905090565b610a30610a29610e4a565b8383611443565b5050565b610a45610a3f610e4a565b83610f0b565b610a84576040517f08c379a0000000000000000000000000000000000000000000000000000000008152600401610a7b90612ae0565b60405180910390fd5b610a90848484846115b0565b50505050565b6060610aa182610dde565b610ae0576040517f08c379a0000000000000000000000000000000000000000000000000000000008152600401610ad790612a40565b60405180910390fd5b6000600660008481526020019081526020016000208054610b0090612d7f565b80601f0160208091040260200160405190810160405280929190818152602001828054610b2c90612d7f565b8015610b795780601f10610b4e57610100808354040283529160200191610b79565b820191906000526020600020905b815481529060010190602001808311610b5c57829003601f168201915b505050505090506000610b8a61160c565b9050600081511415610ba0578192505050610be3565b600082511115610bd5578082604051602001610bbd92919061273f565b60405160208183030381529060405292505050610be3565b610bde84611623565b925050505b919050565b6000600560008473ffffffffffffffffffffffffffffffffffffffff1673ffffffffffffffffffffffffffffffffffffffff16815260200190815260200160002060008373ffffffffffffffffffffffffffffffffffffffff1673ffffffffffffffffffffffffffffffffffffffff16815260200190815260200160002060009054906101000a900460ff16905092915050565b610c84610e4a565b73ffffffffffffffffffffffffffffffffffffffff16610ca2610962565b73ffffffffffffffffffffffffffffffffffffffff1614610cf8576040517f08c379a0000000000000000000000000000000000000000000000000000000008152600401610cef90612a80565b60405180910390fd5b600073ffffffffffffffffffffffffffffffffffffffff168173ffffffffffffffffffffffffffffffffffffffff161415610d68576040517f08c379a0000000000000000000000000000000000000000000000000000000008152600401610d5f906128e0565b60405180910390fd5b610d718161137d565b50565b60007f01ffc9a7000000000000000000000000000000000000000000000000000000007bffffffffffffffffffffffffffffffffffffffffffffffffffffffff1916827bffffffffffffffffffffffffffffffffffffffffffffffffffffffff1916149050919050565b60008073ffffffffffffffffffffffffffffffffffffffff166002600084815260200190815260200160002060009054906101000a900473ffffffffffffffffffffffffffffffffffffffff1673ffffffffffffffffffffffffffffffffffffffff1614159050919050565b600033905090565b816004600083815260200190815260200160002060006101000a81548173ffffffffffffffffffffffffffffffffffffffff021916908373ffffffffffffffffffffffffffffffffffffffff160217905550808273ffffffffffffffffffffffffffffffffffffffff16610ec583610770565b73ffffffffffffffffffffffffffffffffffffffff167f8c5be1e5ebec7d5bd14f71427d1e84f3dd0314c0f7b2291e5b200ac8c7c3b92560405160405180910390a45050565b6000610f1682610dde565b610f55576040517f08c379a0000000000000000000000000000000000000000000000000000000008152600401610f4c90612980565b60405180910390fd5b6000610f6083610770565b90508073ffffffffffffffffffffffffffffffffffffffff168473ffffffffffffffffffffffffffffffffffffffff161480610fa25750610fa18185610be8565b5b80610fe057508373ffffffffffffffffffffffffffffffffffffffff16610fc8846104cc565b73ffffffffffffffffffffffffffffffffffffffff16145b91505092915050565b8273ffffffffffffffffffffffffffffffffffffffff1661100982610770565b73ffffffffffffffffffffffffffffffffffffffff161461105f576040517f08c379a000000000000000000000000000000000000000000000000000000000815260040161105690612900565b60405180910390fd5b600073ffffffffffffffffffffffffffffffffffffffff168273ffffffffffffffffffffffffffffffffffffffff1614156110cf576040517f08c379a00000000000000000000000000000000000000000000000000000000081526004016110c690612940565b60405180910390fd5b6110da8383836116ca565b6110e5600082610e52565b6001600360008573ffffffffffffffffffffffffffffffffffffffff1673ffffffffffffffffffffffffffffffffffffffff16815260200190815260200160002060008282546111359190612c95565b925050819055506001600360008473ffffffffffffffffffffffffffffffffffffffff1673ffffffffffffffffffffffffffffffffffffffff168152602001908152602001600020600082825461118c9190612bb4565b92505081905550816002600083815260200190815260200160002060006101000a81548173ffffffffffffffffffffffffffffffffffffffff021916908373ffffffffffffffffffffffffffffffffffffffff160217905550808273ffffffffffffffffffffffffffffffffffffffff168473ffffffffffffffffffffffffffffffffffffffff167fddf252ad1be2c89b69c2b068fc378daa952ba7f163c4a11628f55a4df523b3ef60405160405180910390a461124b8383836116cf565b505050565b600081600001549050919050565b6060600061129c8c8c8c8c8c8c8c8c8c8c6040516020016112889a99989796959493929190612763565b6040516020818303038152906040526116d4565b90506000816040516020016112b191906127fa565b604051602081830303815290604052905080925050509a9950505050505050505050565b6112ef82826040518060200160405280600081525061185e565b5050565b6112fc82610dde565b61133b576040517f08c379a000000000000000000000000000000000000000000000000000000000815260040161133290612a00565b60405180910390fd5b80600660008481526020019081526020016000209080519060200190611362929190611dfa565b505050565b6001816000016000828254019250508190555050565b6000600760009054906101000a900473ffffffffffffffffffffffffffffffffffffffff16905081600760006101000a81548173ffffffffffffffffffffffffffffffffffffffff021916908373ffffffffffffffffffffffffffffffffffffffff1602179055508173ffffffffffffffffffffffffffffffffffffffff168173ffffffffffffffffffffffffffffffffffffffff167f8be0079c531659141344cd1fd0a4f28419497f9722a3daafe3b4186f6b6457e060405160405180910390a35050565b8173ffffffffffffffffffffffffffffffffffffffff168373ffffffffffffffffffffffffffffffffffffffff1614156114b2576040517f08c379a00000000000000000000000000000000000000000000000000000000081526004016114a990612960565b60405180910390fd5b80600560008573ffffffffffffffffffffffffffffffffffffffff1673ffffffffffffffffffffffffffffffffffffffff16815260200190815260200160002060008473ffffffffffffffffffffffffffffffffffffffff1673ffffffffffffffffffffffffffffffffffffffff16815260200190815260200160002060006101000a81548160ff0219169083151502179055508173ffffffffffffffffffffffffffffffffffffffff168373ffffffffffffffffffffffffffffffffffffffff167f17307eab39ab6107e8899845ad3d59bd9653f200f220920489ca2b5937696c31836040516115a39190612883565b60405180910390a3505050565b6115bb848484610fe9565b6115c7848484846118b9565b611606576040517f08c379a00000000000000000000000000000000000000000000000000000000081526004016115fd906128c0565b60405180910390fd5b50505050565b606060405180602001604052806000815250905090565b606061162e82610dde565b61166d576040517f08c379a000000000000000000000000000000000000000000000000000000000815260040161166490612aa0565b60405180910390fd5b600061167761160c565b9050600081511161169757604051806020016040528060008152506116c2565b806116a184611a50565b6040516020016116b292919061273f565b6040516020818303038152906040525b915050919050565b505050565b505050565b60606000825114156116f757604051806020016040528060008152509050611859565b600060405180606001604052806040815260200161359b60409139905060006003600285516117269190612bb4565b6117309190612c0a565b600461173c9190612c3b565b67ffffffffffffffff81111561177b577f4e487b7100000000000000000000000000000000000000000000000000000000600052604160045260246000fd5b6040519080825280601f01601f1916602001820160405280156117ad5781602001600182028036833780820191505090505b509050600182016020820185865187015b80821015611819576003820191508151603f8160121c168501518453600184019350603f81600c1c168501518453600184019350603f8160061c168501518453600184019350603f81168501518453600184019350506117be565b5050600386510660018114611835576002811461184857611850565b603d6001830353603d6002830353611850565b603d60018303535b50505080925050505b919050565b6118688383611bfd565b61187560008484846118b9565b6118b4576040517f08c379a00000000000000000000000000000000000000000000000000000000081526004016118ab906128c0565b60405180910390fd5b505050565b60006118da8473ffffffffffffffffffffffffffffffffffffffff16611dd7565b15611a43578373ffffffffffffffffffffffffffffffffffffffff1663150b7a02611903610e4a565b8786866040518563ffffffff1660e01b81526004016119259493929190612837565b602060405180830381600087803b15801561193f57600080fd5b505af192505050801561197057506040513d601f19601f8201168201806040525081019061196d9190612188565b60015b6119f3573d80600081146119a0576040519150601f19603f3d011682016040523d82523d6000602084013e6119a5565b606091505b506000815114156119eb576040517f08c379a00000000000000000000000000000000000000000000000000000000081526004016119e2906128c0565b60405180910390fd5b805181602001fd5b63150b7a0260e01b7bffffffffffffffffffffffffffffffffffffffffffffffffffffffff1916817bffffffffffffffffffffffffffffffffffffffffffffffffffffffff191614915050611a48565b600190505b949350505050565b60606000821415611a98576040518060400160405280600181526020017f30000000000000000000000000000000000000000000000000000000000000008152509050611bf8565b600082905060005b60008214611aca578080611ab390612de2565b915050600a82611ac39190612c0a565b9150611aa0565b60008167ffffffffffffffff811115611b0c577f4e487b7100000000000000000000000000000000000000000000000000000000600052604160045260246000fd5b6040519080825280601f01601f191660200182016040528015611b3e5781602001600182028036833780820191505090505b5090505b60008514611bf157600182611b579190612c95565b9150600a85611b669190612e2b565b6030611b729190612bb4565b60f81b818381518110611bae577f4e487b7100000000000000000000000000000000000000000000000000000000600052603260045260246000fd5b60200101907effffffffffffffffffffffffffffffffffffffffffffffffffffffffffffff1916908160001a905350600a85611bea9190612c0a565b9450611b42565b8093505050505b919050565b600073ffffffffffffffffffffffffffffffffffffffff168273ffffffffffffffffffffffffffffffffffffffff161415611c6d576040517f08c379a0000000000000000000000000000000000000000000000000000000008152600401611c6490612a20565b60405180910390fd5b611c7681610dde565b15611cb6576040517f08c379a0000000000000000000000000000000000000000000000000000000008152600401611cad90612920565b60405180910390fd5b611cc2600083836116ca565b6001600360008473ffffffffffffffffffffffffffffffffffffffff1673ffffffffffffffffffffffffffffffffffffffff1681526020019081526020016000206000828254611d129190612bb4565b92505081905550816002600083815260200190815260200160002060006101000a81548173ffffffffffffffffffffffffffffffffffffffff021916908373ffffffffffffffffffffffffffffffffffffffff160217905550808273ffffffffffffffffffffffffffffffffffffffff16600073ffffffffffffffffffffffffffffffffffffffff167fddf252ad1be2c89b69c2b068fc378daa952ba7f163c4a11628f55a4df523b3ef60405160405180910390a4611dd3600083836116cf565b5050565b6000808273ffffffffffffffffffffffffffffffffffffffff163b119050919050565b828054611e0690612d7f565b90600052602060002090601f016020900481019282611e285760008555611e6f565b82601f10611e4157805160ff1916838001178555611e6f565b82800160010185558215611e6f579182015b82811115611e6e578251825591602001919060010190611e53565b5b509050611e7c9190611e80565b5090565b5b80821115611e99576000816000905550600101611e81565b5090565b6000611eb0611eab84612b40565b612b1b565b905082815260208101848484011115611ec857600080fd5b611ed3848285612d3d565b509392505050565b600081359050611eea8161353e565b92915050565b600081359050611eff81613555565b92915050565b600081359050611f148161356c565b92915050565b600081519050611f298161356c565b92915050565b600082601f830112611f4057600080fd5b8135611f50848260208601611e9d565b91505092915050565b60008083601f840112611f6b57600080fd5b8235905067ffffffffffffffff811115611f8457600080fd5b602083019150836001820283011115611f9c57600080fd5b9250929050565b600081359050611fb281613583565b92915050565b600060208284031215611fca57600080fd5b6000611fd884828501611edb565b91505092915050565b60008060408385031215611ff457600080fd5b600061200285828601611edb565b925050602061201385828601611edb565b9150509250929050565b60008060006060848603121561203257600080fd5b600061204086828701611edb565b935050602061205186828701611edb565b925050604061206286828701611fa3565b9150509250925092565b6000806000806080858703121561208257600080fd5b600061209087828801611edb565b94505060206120a187828801611edb565b93505060406120b287828801611fa3565b925050606085013567ffffffffffffffff8111156120cf57600080fd5b6120db87828801611f2f565b91505092959194509250565b600080604083850312156120fa57600080fd5b600061210885828601611edb565b925050602061211985828601611ef0565b9150509250929050565b6000806040838503121561213657600080fd5b600061214485828601611edb565b925050602061215585828601611fa3565b9150509250929050565b60006020828403121561217157600080fd5b600061217f84828501611f05565b91505092915050565b60006020828403121561219a57600080fd5b60006121a884828501611f1a565b91505092915050565b60008060008060008060008060008060a08b8d0312156121d057600080fd5b60008b013567ffffffffffffffff8111156121ea57600080fd5b6121f68d828e01611f59565b9a509a505060208b013567ffffffffffffffff81111561221557600080fd5b6122218d828e01611f59565b985098505060408b013567ffffffffffffffff81111561224057600080fd5b61224c8d828e01611f59565b965096505060608b013567ffffffffffffffff81111561226b57600080fd5b6122778d828e01611f59565b945094505060808b013567ffffffffffffffff81111561229657600080fd5b6122a28d828e01611f59565b92509250509295989b9194979a5092959850565b6000602082840312156122c857600080fd5b60006122d684828501611fa3565b91505092915050565b6122e881612cc9565b82525050565b6122f781612cdb565b82525050565b600061230882612b71565b6123128185612b87565b9350612322818560208601612d4c565b61232b81612f18565b840191505092915050565b60006123428385612ba9565b935061234f838584612d3d565b82840190509392505050565b600061236682612b7c565b6123708185612b98565b9350612380818560208601612d4c565b61238981612f18565b840191505092915050565b600061239f82612b7c565b6123a98185612ba9565b93506123b9818560208601612d4c565b80840191505092915050565b60006123d2601383612ba9565b91506123dd82612f29565b601382019050919050565b60006123f5603283612b98565b915061240082612f52565b604082019050919050565b6000612418602683612b98565b915061242382612fa1565b604082019050919050565b600061243b602583612b98565b915061244682612ff0565b604082019050919050565b600061245e600b83612ba9565b91506124698261303f565b600b82019050919050565b6000612481601c83612b98565b915061248c82613068565b602082019050919050565b60006124a4601483612ba9565b91506124af82613091565b601482019050919050565b60006124c7602483612b98565b91506124d2826130ba565b604082019050919050565b60006124ea601983612b98565b91506124f582613109565b602082019050919050565b600061250d602c83612b98565b915061251882613132565b604082019050919050565b6000612530600a83612ba9565b915061253b82613181565b600a82019050919050565b6000612553601383612ba9565b915061255e826131aa565b601382019050919050565b6000612576603883612b98565b9150612581826131d3565b604082019050919050565b6000612599602a83612b98565b91506125a482613222565b604082019050919050565b60006125bc602983612b98565b91506125c782613271565b604082019050919050565b60006125df602e83612b98565b91506125ea826132c0565b604082019050919050565b6000612602600283612ba9565b915061260d8261330f565b600282019050919050565b6000612625602083612b98565b915061263082613338565b602082019050919050565b6000612648603183612b98565b915061265382613361565b604082019050919050565b600061266b602c83612b98565b9150612676826133b0565b604082019050919050565b600061268e602083612b98565b9150612699826133ff565b602082019050919050565b60006126b1602f83612b98565b91506126bc82613428565b604082019050919050565b60006126d4602183612b98565b91506126df82613477565b604082019050919050565b60006126f7601d83612ba9565b9150612702826134c6565b601d82019050919050565b600061271a603183612b98565b9150612725826134ef565b604082019050919050565b61273981612d33565b82525050565b600061274b8285612394565b91506127578284612394565b91508190509392505050565b600061276e82612451565b915061277b828c8e612336565b9150612786826123c5565b9150612793828a8c612336565b915061279e82612523565b91506127ab82888a612336565b91506127b682612497565b91506127c3828688612336565b91506127ce82612546565b91506127db828486612336565b91506127e6826125f5565b91508190509b9a5050505050505050505050565b6000612805826126ea565b91506128118284612394565b915081905092915050565b600060208201905061283160008301846122df565b92915050565b600060808201905061284c60008301876122df565b61285960208301866122df565b6128666040830185612730565b818103606083015261287881846122fd565b905095945050505050565b600060208201905061289860008301846122ee565b92915050565b600060208201905081810360008301526128b8818461235b565b905092915050565b600060208201905081810360008301526128d9816123e8565b9050919050565b600060208201905081810360008301526128f98161240b565b9050919050565b600060208201905081810360008301526129198161242e565b9050919050565b6000602082019050818103600083015261293981612474565b9050919050565b60006020820190508181036000830152612959816124ba565b9050919050565b60006020820190508181036000830152612979816124dd565b9050919050565b6000602082019050818103600083015261299981612500565b9050919050565b600060208201905081810360008301526129b981612569565b9050919050565b600060208201905081810360008301526129d98161258c565b9050919050565b600060208201905081810360008301526129f9816125af565b9050919050565b60006020820190508181036000830152612a19816125d2565b9050919050565b60006020820190508181036000830152612a3981612618565b9050919050565b60006020820190508181036000830152612a598161263b565b9050919050565b60006020820190508181036000830152612a798161265e565b9050919050565b60006020820190508181036000830152612a9981612681565b9050919050565b60006020820190508181036000830152612ab9816126a4565b9050919050565b60006020820190508181036000830152612ad9816126c7565b9050919050565b60006020820190508181036000830152612af98161270d565b9050919050565b6000602082019050612b156000830184612730565b92915050565b6000612b25612b36565b9050612b318282612db1565b919050565b6000604051905090565b600067ffffffffffffffff821115612b5b57612b5a612ee9565b5b612b6482612f18565b9050602081019050919050565b600081519050919050565b600081519050919050565b600082825260208201905092915050565b600082825260208201905092915050565b600081905092915050565b6000612bbf82612d33565b9150612bca83612d33565b9250827fffffffffffffffffffffffffffffffffffffffffffffffffffffffffffffffff03821115612bff57612bfe612e5c565b5b828201905092915050565b6000612c1582612d33565b9150612c2083612d33565b925082612c3057612c2f612e8b565b5b828204905092915050565b6000612c4682612d33565b9150612c5183612d33565b9250817fffffffffffffffffffffffffffffffffffffffffffffffffffffffffffffffff0483118215151615612c8a57612c89612e5c565b5b828202905092915050565b6000612ca082612d33565b9150612cab83612d33565b925082821015612cbe57612cbd612e5c565b5b828203905092915050565b6000612cd482612d13565b9050919050565b60008115159050919050565b60007fffffffff0000000000000000000000000000000000000000000000000000000082169050919050565b600073ffffffffffffffffffffffffffffffffffffffff82169050919050565b6000819050919050565b82818337600083830152505050565b60005b83811015612d6a578082015181840152602081019050612d4f565b83811115612d79576000848401525b50505050565b60006002820490506001821680612d9757607f821691505b60208210811415612dab57612daa612eba565b5b50919050565b612dba82612f18565b810181811067ffffffffffffffff82111715612dd957612dd8612ee9565b5b80604052505050565b6000612ded82612d33565b91507fffffffffffffffffffffffffffffffffffffffffffffffffffffffffffffffff821415612e2057612e1f612e5c565b5b600182019050919050565b6000612e3682612d33565b9150612e4183612d33565b925082612e5157612e50612e8b565b5b828206905092915050565b7f4e487b7100000000000000000000000000000000000000000000000000000000600052601160045260246000fd5b7f4e487b7100000000000000000000000000000000000000000000000000000000600052601260045260246000fd5b7f4e487b7100000000000000000000000000000000000000000000000000000000600052602260045260246000fd5b7f4e487b7100000000000000000000000000000000000000000000000000000000600052604160045260246000fd5b6000601f19601f8301169050919050565b7f222c20226465736372697074696f6e223a202200000000000000000000000000600082015250565b7f4552433732313a207472616e7366657220746f206e6f6e20455243373231526560008201527f63656976657220696d706c656d656e7465720000000000000000000000000000602082015250565b7f4f776e61626c653a206e6577206f776e657220697320746865207a65726f206160008201527f6464726573730000000000000000000000000000000000000000000000000000602082015250565b7f4552433732313a207472616e736665722066726f6d20696e636f72726563742060008201527f6f776e6572000000000000000000000000000000000000000000000000000000602082015250565b7f7b20226e616d65223a2022000000000000000000000000000000000000000000600082015250565b7f4552433732313a20746f6b656e20616c7265616479206d696e74656400000000600082015250565b7f222c2261636573736f72795f6e616d65223a2022000000000000000000000000600082015250565b7f4552433732313a207472616e7366657220746f20746865207a65726f2061646460008201527f7265737300000000000000000000000000000000000000000000000000000000602082015250565b7f4552433732313a20617070726f766520746f2063616c6c657200000000000000600082015250565b7f4552433732313a206f70657261746f7220717565727920666f72206e6f6e657860008201527f697374656e7420746f6b656e0000000000000000000000000000000000000000602082015250565b7f222c2275726c223a202200000000000000000000000000000000000000000000600082015250565b7f222c2261636573736f72795f75726c223a202200000000000000000000000000600082015250565b7f4552433732313a20617070726f76652063616c6c6572206973206e6f74206f7760008201527f6e6572206e6f7220617070726f76656420666f7220616c6c0000000000000000602082015250565b7f4552433732313a2062616c616e636520717565727920666f7220746865207a6560008201527f726f206164647265737300000000000000000000000000000000000000000000602082015250565b7f4552433732313a206f776e657220717565727920666f72206e6f6e657869737460008201527f656e7420746f6b656e0000000000000000000000000000000000000000000000602082015250565b7f45524337323155524953746f726167653a2055524920736574206f66206e6f6e60008201527f6578697374656e7420746f6b656e000000000000000000000000000000000000602082015250565b7f227d000000000000000000000000000000000000000000000000000000000000600082015250565b7f4552433732313a206d696e7420746f20746865207a65726f2061646472657373600082015250565b7f45524337323155524953746f726167653a2055524920717565727920666f722060008201527f6e6f6e6578697374656e7420746f6b656e000000000000000000000000000000602082015250565b7f4552433732313a20617070726f76656420717565727920666f72206e6f6e657860008201527f697374656e7420746f6b656e0000000000000000000000000000000000000000602082015250565b7f4f776e61626c653a2063616c6c6572206973206e6f7420746865206f776e6572600082015250565b7f4552433732314d657461646174613a2055524920717565727920666f72206e6f60008201527f6e6578697374656e7420746f6b656e0000000000000000000000000000000000602082015250565b7f4552433732313a20617070726f76616c20746f2063757272656e74206f776e6560008201527f7200000000000000000000000000000000000000000000000000000000000000602082015250565b7f646174613a6170706c69636174696f6e2f6a736f6e3b6261736536342c000000600082015250565b7f4552433732313a207472616e736665722063616c6c6572206973206e6f74206f60008201527f776e6572206e6f7220617070726f766564000000000000000000000000000000602082015250565b61354781612cc9565b811461355257600080fd5b50565b61355e81612cdb565b811461356957600080fd5b50565b61357581612ce7565b811461358057600080fd5b50565b61358c81612d33565b811461359757600080fd5b5056fe4142434445464748494a4b4c4d4e4f505152535455565758595a6162636465666768696a6b6c6d6e6f707172737475767778797a303132333435363738392b2fa2646970667358221220f00ede25b15867c69a6d4dcea76a37ee56320a2954c9026a036d6031f798e5f164736f6c63430008040033",
  "linkReferences": {},
  "deployedLinkReferences": {}
}